{"abi":[{"inputs":[{"internalType":"string[]","name":"candidateNames","type":"string[]"},{"internalType":"string[]","name":"candidateParty","type":"string[]"},{"internalType":"string","name":"district","type":"string"},{"internalType":"address","name":"creator","type":"address"},{"internalType":"uint256","name":"amountofHours","type":"uint256"}],"stateMutability":"nonpayable","type":"constructor"},{"inputs":[{"internalType":"uint256","name":"","type":"uint256"}],"name":"candidates","outputs":[{"internalType":"string","name":"name","type":"string"},{"internalType":"string","name":"party","type":"string"},{"internalType":"uint256","name":"voteCount","type":"uint256"},{"internalType":"uint256","name":"creationDate","type":"uint256"},{"internalType":"uint256","name":"expirationDate","type":"uint256"}],"stateMutability":"view","type":"function"},{"inputs":[{"internalType":"uint256","name":"index","type":"uint256"}],"name":"getCandidateName","outputs":[{"internalType":"string","name":"","type":"string"}],"stateMutability":"view","type":"function"},{"inputs":[{"internalType":"uint256","name":"index","type":"uint256"}],"name":"getCandidateParty","outputs":[{"internalType":"string","name":"","type":"string"}],"stateMutability":"view","type":"function"},{"inputs":[{"internalType":"uint256","name":"index","type":"uint256"}],"name":"getVoteCount","outputs":[{"internalType":"uint256","name":"","type":"uint256"}],"stateMutability":"view","type":"function"},{"inputs":[],"name":"manager","outputs":[{"internalType":"address","name":"","type":"address"}],"stateMutability":"view","type":"function"},{"inputs":[{"internalType":"uint256","name":"index","type":"uint256"}],"name":"vote","outputs":[],"stateMutability":"nonpayable","type":"function"},{"inputs":[{"internalType":"address","name":"","type":"address"}],"name":"voters","outputs":[{"internalType":"bool","name":"","type":"bool"}],"stateMutability":"view","type":"function"},{"inputs":[],"name":"votingDistrict","outputs":[{"internalType":"string","name":"","type":"string"}],"stateMutability":"view","type":"function"}],"devdoc":{"kind":"dev","methods":{},"version":1},"evm":{"assembly":"    /* \"evs.sol\":668:2345  contract Ballot ... */\n  mstore(0x40, 0x80)\n    /* \"evs.sol\":1020:1542  constructor (string[] memory candidateNames,string[] memory candidateParty, string memory district, address creator, uint amountofHours) ... */\n  callvalue\n  dup1\n  iszero\n  tag_1\n  jumpi\n  0x00\n  dup1\n  revert\ntag_1:\n  pop\n  mload(0x40)\n  sub(codesize, bytecodeSize)\n  dup1\n  bytecodeSize\n  dup4\n  codecopy\n  dup2\n  dup2\n  add\n  0x40\n  mstore\n  dup2\n  add\n  swap1\n  tag_2\n  swap2\n  swap1\n  tag_3\n  jump\t// in\ntag_2:\n    /* \"evs.sol\":1172:1179  creator */\n  dup2\n    /* \"evs.sol\":1162:1169  manager */\n  0x01\n  0x00\n    /* \"evs.sol\":1162:1179  manager = creator */\n  0x0100\n  exp\n  dup2\n  sload\n  dup2\n  0xffffffffffffffffffffffffffffffffffffffff\n  mul\n  not\n  and\n  swap1\n  dup4\n  0xffffffffffffffffffffffffffffffffffffffff\n  and\n  mul\n  or\n  swap1\n  sstore\n  pop\n    /* \"evs.sol\":1199:1207  district */\n  dup3\n    /* \"evs.sol\":1182:1196  votingDistrict */\n  0x02\n    /* \"evs.sol\":1182:1207  votingDistrict = district */\n  swap1\n  dup2\n  tag_6\n  swap2\n  swap1\n  tag_7\n  jump\t// in\ntag_6:\n  pop\n    /* \"evs.sol\":1214:1220  uint i */\n  0x00\n    /* \"evs.sol\":1210:1508  for(uint i=0; i< candidateNames.length;i++)... */\ntag_8:\n    /* \"evs.sol\":1227:1241  candidateNames */\n  dup6\n    /* \"evs.sol\":1227:1248  candidateNames.length */\n  mload\n    /* \"evs.sol\":1224:1225  i */\n  dup2\n    /* \"evs.sol\":1224:1248  i< candidateNames.length */\n  lt\n    /* \"evs.sol\":1210:1508  for(uint i=0; i< candidateNames.length;i++)... */\n  iszero\n  tag_9\n  jumpi\n    /* \"evs.sol\":1266:1276  candidates */\n  0x00\n    /* \"evs.sol\":1282:1499  candidate(... */\n  mload(0x40)\n  dup1\n  0xa0\n  add\n  0x40\n  mstore\n  dup1\n    /* \"evs.sol\":1318:1332  candidateNames */\n  dup9\n    /* \"evs.sol\":1333:1334  i */\n  dup5\n    /* \"evs.sol\":1318:1335  candidateNames[i] */\n  dup2\n  mload\n  dup2\n  lt\n  tag_11\n  jumpi\n  tag_12\n  tag_13\n  jump\t// in\ntag_12:\ntag_11:\n  0x20\n  mul\n  0x20\n  add\n  add\n  mload\n    /* \"evs.sol\":1282:1499  candidate(... */\n  dup2\n  mstore\n  0x20\n  add\n    /* \"evs.sol\":1353:1367  candidateParty */\n  dup8\n    /* \"evs.sol\":1368:1369  i */\n  dup5\n    /* \"evs.sol\":1353:1370  candidateParty[i] */\n  dup2\n  mload\n  dup2\n  lt\n  tag_14\n  jumpi\n  tag_15\n  tag_13\n  jump\t// in\ntag_15:\ntag_14:\n  0x20\n  mul\n  0x20\n  add\n  add\n  mload\n    /* \"evs.sol\":1282:1499  candidate(... */\n  dup2\n  mstore\n  0x20\n  add\n    /* \"evs.sol\":1392:1393  0 */\n  0x00\n    /* \"evs.sol\":1282:1499  candidate(... */\n  dup2\n  mstore\n  0x20\n  add\n    /* \"evs.sol\":1418:1433  block.timestamp */\n  timestamp\n    /* \"evs.sol\":1282:1499  candidate(... */\n  dup2\n  mstore\n  0x20\n  add\n    /* \"evs.sol\":1478:1491  amountofHours */\n  dup5\n    /* \"evs.sol\":1460:1475  block.timestamp */\n  timestamp\n    /* \"evs.sol\":1460:1491  block.timestamp + amountofHours */\n  tag_16\n  swap2\n  swap1\n  tag_17\n  jump\t// in\ntag_16:\n    /* \"evs.sol\":1282:1499  candidate(... */\n  dup2\n  mstore\n  pop\n    /* \"evs.sol\":1266:1500  candidates.push(candidate(... */\n  swap1\n  dup1\n  0x01\n  dup2\n  sload\n  add\n  dup1\n  dup3\n  sstore\n  dup1\n  swap2\n  pop\n  pop\n  0x01\n  swap1\n  sub\n  swap1\n  0x00\n  mstore\n  keccak256(0x00, 0x20)\n  swap1\n  0x05\n  mul\n  add\n  0x00\n  swap1\n  swap2\n  swap1\n  swap2\n  swap1\n  swap2\n  pop\n  0x00\n  dup3\n  add\n  mload\n  dup2\n  0x00\n  add\n  swap1\n  dup2\n  tag_19\n  swap2\n  swap1\n  tag_7\n  jump\t// in\ntag_19:\n  pop\n  0x20\n  dup3\n  add\n  mload\n  dup2\n  0x01\n  add\n  swap1\n  dup2\n  tag_20\n  swap2\n  swap1\n  tag_7\n  jump\t// in\ntag_20:\n  pop\n  0x40\n  dup3\n  add\n  mload\n  dup2\n  0x02\n  add\n  sstore\n  0x60\n  dup3\n  add\n  mload\n  dup2\n  0x03\n  add\n  sstore\n  0x80\n  dup3\n  add\n  mload\n  dup2\n  0x04\n  add\n  sstore\n  pop\n  pop\n    /* \"evs.sol\":1249:1252  i++ */\n  dup1\n  dup1\n  0x01\n  add\n  swap2\n  pop\n  pop\n    /* \"evs.sol\":1210:1508  for(uint i=0; i< candidateNames.length;i++)... */\n  jump(tag_8)\ntag_9:\n  pop\n    /* \"evs.sol\":1020:1542  constructor (string[] memory candidateNames,string[] memory candidateParty, string memory district, address creator, uint amountofHours) ... */\n  pop\n  pop\n  pop\n  pop\n  pop\n    /* \"evs.sol\":668:2345  contract Ballot ... */\n  jump(tag_21)\n    /* \"#utility.yul\":7:82   */\ntag_22:\n    /* \"#utility.yul\":40:46   */\n  0x00\n    /* \"#utility.yul\":73:75   */\n  0x40\n    /* \"#utility.yul\":67:76   */\n  mload\n    /* \"#utility.yul\":57:76   */\n  swap1\n  pop\n    /* \"#utility.yul\":7:82   */\n  swap1\n  jump\t// out\n    /* \"#utility.yul\":88:205   */\ntag_23:\n    /* \"#utility.yul\":197:198   */\n  0x00\n    /* \"#utility.yul\":194:195   */\n  dup1\n    /* \"#utility.yul\":187:199   */\n  revert\n    /* \"#utility.yul\":211:328   */\ntag_24:\n    /* \"#utility.yul\":320:321   */\n  0x00\n    /* \"#utility.yul\":317:318   */\n  dup1\n    /* \"#utility.yul\":310:322   */\n  revert\n    /* \"#utility.yul\":334:451   */\ntag_25:\n    /* \"#utility.yul\":443:444   */\n  0x00\n    /* \"#utility.yul\":440:441   */\n  dup1\n    /* \"#utility.yul\":433:445   */\n  revert\n    /* \"#utility.yul\":457:559   */\ntag_26:\n    /* \"#utility.yul\":498:504   */\n  0x00\n    /* \"#utility.yul\":549:551   */\n  0x1f\n    /* \"#utility.yul\":545:552   */\n  not\n    /* \"#utility.yul\":540:542   */\n  0x1f\n    /* \"#utility.yul\":533:538   */\n  dup4\n    /* \"#utility.yul\":529:543   */\n  add\n    /* \"#utility.yul\":525:553   */\n  and\n    /* \"#utility.yul\":515:553   */\n  swap1\n  pop\n    /* \"#utility.yul\":457:559   */\n  swap2\n  swap1\n  pop\n  jump\t// out\n    /* \"#utility.yul\":565:745   */\ntag_27:\n    /* \"#utility.yul\":613:690   */\n  0x4e487b7100000000000000000000000000000000000000000000000000000000\n    /* \"#utility.yul\":610:611   */\n  0x00\n    /* \"#utility.yul\":603:691   */\n  mstore\n    /* \"#utility.yul\":710:714   */\n  0x41\n    /* \"#utility.yul\":707:708   */\n  0x04\n    /* \"#utility.yul\":700:715   */\n  mstore\n    /* \"#utility.yul\":734:738   */\n  0x24\n    /* \"#utility.yul\":731:732   */\n  0x00\n    /* \"#utility.yul\":724:739   */\n  revert\n    /* \"#utility.yul\":751:1032   */\ntag_28:\n    /* \"#utility.yul\":834:861   */\n  tag_73\n    /* \"#utility.yul\":856:860   */\n  dup3\n    /* \"#utility.yul\":834:861   */\n  tag_26\n  jump\t// in\ntag_73:\n    /* \"#utility.yul\":826:832   */\n  dup2\n    /* \"#utility.yul\":822:862   */\n  add\n    /* \"#utility.yul\":964:970   */\n  dup2\n    /* \"#utility.yul\":952:962   */\n  dup2\n    /* \"#utility.yul\":949:971   */\n  lt\n    /* \"#utility.yul\":928:946   */\n  0xffffffffffffffff\n    /* \"#utility.yul\":916:926   */\n  dup3\n    /* \"#utility.yul\":913:947   */\n  gt\n    /* \"#utility.yul\":910:972   */\n  or\n    /* \"#utility.yul\":907:995   */\n  iszero\n  tag_74\n  jumpi\n    /* \"#utility.yul\":975:993   */\n  tag_75\n  tag_27\n  jump\t// in\ntag_75:\n    /* \"#utility.yul\":907:995   */\ntag_74:\n    /* \"#utility.yul\":1015:1025   */\n  dup1\n    /* \"#utility.yul\":1011:1013   */\n  0x40\n    /* \"#utility.yul\":1004:1026   */\n  mstore\n    /* \"#utility.yul\":794:1032   */\n  pop\n    /* \"#utility.yul\":751:1032   */\n  pop\n  pop\n  jump\t// out\n    /* \"#utility.yul\":1038:1167   */\ntag_29:\n    /* \"#utility.yul\":1072:1078   */\n  0x00\n    /* \"#utility.yul\":1099:1119   */\n  tag_77\n  tag_22\n  jump\t// in\ntag_77:\n    /* \"#utility.yul\":1089:1119   */\n  swap1\n  pop\n    /* \"#utility.yul\":1128:1161   */\n  tag_78\n    /* \"#utility.yul\":1156:1160   */\n  dup3\n    /* \"#utility.yul\":1148:1154   */\n  dup3\n    /* \"#utility.yul\":1128:1161   */\n  tag_28\n  jump\t// in\ntag_78:\n    /* \"#utility.yul\":1038:1167   */\n  swap2\n  swap1\n  pop\n  jump\t// out\n    /* \"#utility.yul\":1173:1494   */\ntag_30:\n    /* \"#utility.yul\":1260:1264   */\n  0x00\n    /* \"#utility.yul\":1350:1368   */\n  0xffffffffffffffff\n    /* \"#utility.yul\":1342:1348   */\n  dup3\n    /* \"#utility.yul\":1339:1369   */\n  gt\n    /* \"#utility.yul\":1336:1392   */\n  iszero\n  tag_80\n  jumpi\n    /* \"#utility.yul\":1372:1390   */\n  tag_81\n  tag_27\n  jump\t// in\ntag_81:\n    /* \"#utility.yul\":1336:1392   */\ntag_80:\n    /* \"#utility.yul\":1422:1426   */\n  0x20\n    /* \"#utility.yul\":1414:1420   */\n  dup3\n    /* \"#utility.yul\":1410:1427   */\n  mul\n    /* \"#utility.yul\":1402:1427   */\n  swap1\n  pop\n    /* \"#utility.yul\":1482:1486   */\n  0x20\n    /* \"#utility.yul\":1476:1480   */\n  dup2\n    /* \"#utility.yul\":1472:1487   */\n  add\n    /* \"#utility.yul\":1464:1487   */\n  swap1\n  pop\n    /* \"#utility.yul\":1173:1494   */\n  swap2\n  swap1\n  pop\n  jump\t// out\n    /* \"#utility.yul\":1500:1617   */\ntag_31:\n    /* \"#utility.yul\":1609:1610   */\n  0x00\n    /* \"#utility.yul\":1606:1607   */\n  dup1\n    /* \"#utility.yul\":1599:1611   */\n  revert\n    /* \"#utility.yul\":1623:1740   */\ntag_32:\n    /* \"#utility.yul\":1732:1733   */\n  0x00\n    /* \"#utility.yul\":1729:1730   */\n  dup1\n    /* \"#utility.yul\":1722:1734   */\n  revert\n    /* \"#utility.yul\":1746:2054   */\ntag_33:\n    /* \"#utility.yul\":1808:1812   */\n  0x00\n    /* \"#utility.yul\":1898:1916   */\n  0xffffffffffffffff\n    /* \"#utility.yul\":1890:1896   */\n  dup3\n    /* \"#utility.yul\":1887:1917   */\n  gt\n    /* \"#utility.yul\":1884:1940   */\n  iszero\n  tag_85\n  jumpi\n    /* \"#utility.yul\":1920:1938   */\n  tag_86\n  tag_27\n  jump\t// in\ntag_86:\n    /* \"#utility.yul\":1884:1940   */\ntag_85:\n    /* \"#utility.yul\":1958:1987   */\n  tag_87\n    /* \"#utility.yul\":1980:1986   */\n  dup3\n    /* \"#utility.yul\":1958:1987   */\n  tag_26\n  jump\t// in\ntag_87:\n    /* \"#utility.yul\":1950:1987   */\n  swap1\n  pop\n    /* \"#utility.yul\":2042:2046   */\n  0x20\n    /* \"#utility.yul\":2036:2040   */\n  dup2\n    /* \"#utility.yul\":2032:2047   */\n  add\n    /* \"#utility.yul\":2024:2047   */\n  swap1\n  pop\n    /* \"#utility.yul\":1746:2054   */\n  swap2\n  swap1\n  pop\n  jump\t// out\n    /* \"#utility.yul\":2060:2306   */\ntag_34:\n    /* \"#utility.yul\":2141:2142   */\n  0x00\n    /* \"#utility.yul\":2151:2264   */\ntag_89:\n    /* \"#utility.yul\":2165:2171   */\n  dup4\n    /* \"#utility.yul\":2162:2163   */\n  dup2\n    /* \"#utility.yul\":2159:2172   */\n  lt\n    /* \"#utility.yul\":2151:2264   */\n  iszero\n  tag_91\n  jumpi\n    /* \"#utility.yul\":2250:2251   */\n  dup1\n    /* \"#utility.yul\":2245:2248   */\n  dup3\n    /* \"#utility.yul\":2241:2252   */\n  add\n    /* \"#utility.yul\":2235:2253   */\n  mload\n    /* \"#utility.yul\":2231:2232   */\n  dup2\n    /* \"#utility.yul\":2226:2229   */\n  dup5\n    /* \"#utility.yul\":2222:2233   */\n  add\n    /* \"#utility.yul\":2215:2254   */\n  mstore\n    /* \"#utility.yul\":2187:2189   */\n  0x20\n    /* \"#utility.yul\":2184:2185   */\n  dup2\n    /* \"#utility.yul\":2180:2190   */\n  add\n    /* \"#utility.yul\":2175:2190   */\n  swap1\n  pop\n    /* \"#utility.yul\":2151:2264   */\n  jump(tag_89)\ntag_91:\n    /* \"#utility.yul\":2298:2299   */\n  0x00\n    /* \"#utility.yul\":2289:2295   */\n  dup5\n    /* \"#utility.yul\":2284:2287   */\n  dup5\n    /* \"#utility.yul\":2280:2296   */\n  add\n    /* \"#utility.yul\":2273:2300   */\n  mstore\n    /* \"#utility.yul\":2122:2306   */\n  pop\n    /* \"#utility.yul\":2060:2306   */\n  pop\n  pop\n  pop\n  jump\t// out\n    /* \"#utility.yul\":2312:2746   */\ntag_35:\n    /* \"#utility.yul\":2401:2406   */\n  0x00\n    /* \"#utility.yul\":2426:2492   */\n  tag_93\n    /* \"#utility.yul\":2442:2491   */\n  tag_94\n    /* \"#utility.yul\":2484:2490   */\n  dup5\n    /* \"#utility.yul\":2442:2491   */\n  tag_33\n  jump\t// in\ntag_94:\n    /* \"#utility.yul\":2426:2492   */\n  tag_29\n  jump\t// in\ntag_93:\n    /* \"#utility.yul\":2417:2492   */\n  swap1\n  pop\n    /* \"#utility.yul\":2515:2521   */\n  dup3\n    /* \"#utility.yul\":2508:2513   */\n  dup2\n    /* \"#utility.yul\":2501:2522   */\n  mstore\n    /* \"#utility.yul\":2553:2557   */\n  0x20\n    /* \"#utility.yul\":2546:2551   */\n  dup2\n    /* \"#utility.yul\":2542:2558   */\n  add\n    /* \"#utility.yul\":2591:2594   */\n  dup5\n    /* \"#utility.yul\":2582:2588   */\n  dup5\n    /* \"#utility.yul\":2577:2580   */\n  dup5\n    /* \"#utility.yul\":2573:2589   */\n  add\n    /* \"#utility.yul\":2570:2595   */\n  gt\n    /* \"#utility.yul\":2567:2679   */\n  iszero\n  tag_95\n  jumpi\n    /* \"#utility.yul\":2598:2677   */\n  tag_96\n  tag_32\n  jump\t// in\ntag_96:\n    /* \"#utility.yul\":2567:2679   */\ntag_95:\n    /* \"#utility.yul\":2688:2740   */\n  tag_97\n    /* \"#utility.yul\":2733:2739   */\n  dup5\n    /* \"#utility.yul\":2728:2731   */\n  dup3\n    /* \"#utility.yul\":2723:2726   */\n  dup6\n    /* \"#utility.yul\":2688:2740   */\n  tag_34\n  jump\t// in\ntag_97:\n    /* \"#utility.yul\":2407:2746   */\n  pop\n    /* \"#utility.yul\":2312:2746   */\n  swap4\n  swap3\n  pop\n  pop\n  pop\n  jump\t// out\n    /* \"#utility.yul\":2766:3121   */\ntag_36:\n    /* \"#utility.yul\":2833:2838   */\n  0x00\n    /* \"#utility.yul\":2882:2885   */\n  dup3\n    /* \"#utility.yul\":2875:2879   */\n  0x1f\n    /* \"#utility.yul\":2867:2873   */\n  dup4\n    /* \"#utility.yul\":2863:2880   */\n  add\n    /* \"#utility.yul\":2859:2886   */\n  slt\n    /* \"#utility.yul\":2849:2971   */\n  tag_99\n  jumpi\n    /* \"#utility.yul\":2890:2969   */\n  tag_100\n  tag_25\n  jump\t// in\ntag_100:\n    /* \"#utility.yul\":2849:2971   */\ntag_99:\n    /* \"#utility.yul\":3000:3006   */\n  dup2\n    /* \"#utility.yul\":2994:3007   */\n  mload\n    /* \"#utility.yul\":3025:3115   */\n  tag_101\n    /* \"#utility.yul\":3111:3114   */\n  dup5\n    /* \"#utility.yul\":3103:3109   */\n  dup3\n    /* \"#utility.yul\":3096:3100   */\n  0x20\n    /* \"#utility.yul\":3088:3094   */\n  dup7\n    /* \"#utility.yul\":3084:3101   */\n  add\n    /* \"#utility.yul\":3025:3115   */\n  tag_35\n  jump\t// in\ntag_101:\n    /* \"#utility.yul\":3016:3115   */\n  swap2\n  pop\n    /* \"#utility.yul\":2839:3121   */\n  pop\n    /* \"#utility.yul\":2766:3121   */\n  swap3\n  swap2\n  pop\n  pop\n  jump\t// out\n    /* \"#utility.yul\":3143:4103   */\ntag_37:\n    /* \"#utility.yul\":3260:3265   */\n  0x00\n    /* \"#utility.yul\":3285:3376   */\n  tag_103\n    /* \"#utility.yul\":3301:3375   */\n  tag_104\n    /* \"#utility.yul\":3368:3374   */\n  dup5\n    /* \"#utility.yul\":3301:3375   */\n  tag_30\n  jump\t// in\ntag_104:\n    /* \"#utility.yul\":3285:3376   */\n  tag_29\n  jump\t// in\ntag_103:\n    /* \"#utility.yul\":3276:3376   */\n  swap1\n  pop\n    /* \"#utility.yul\":3396:3401   */\n  dup1\n    /* \"#utility.yul\":3425:3431   */\n  dup4\n    /* \"#utility.yul\":3418:3423   */\n  dup3\n    /* \"#utility.yul\":3411:3432   */\n  mstore\n    /* \"#utility.yul\":3459:3463   */\n  0x20\n    /* \"#utility.yul\":3452:3457   */\n  dup3\n    /* \"#utility.yul\":3448:3464   */\n  add\n    /* \"#utility.yul\":3441:3464   */\n  swap1\n  pop\n    /* \"#utility.yul\":3512:3516   */\n  0x20\n    /* \"#utility.yul\":3504:3510   */\n  dup5\n    /* \"#utility.yul\":3500:3517   */\n  mul\n    /* \"#utility.yul\":3492:3498   */\n  dup4\n    /* \"#utility.yul\":3488:3518   */\n  add\n    /* \"#utility.yul\":3541:3544   */\n  dup6\n    /* \"#utility.yul\":3533:3539   */\n  dup2\n    /* \"#utility.yul\":3530:3545   */\n  gt\n    /* \"#utility.yul\":3527:3649   */\n  iszero\n  tag_105\n  jumpi\n    /* \"#utility.yul\":3560:3639   */\n  tag_106\n  tag_31\n  jump\t// in\ntag_106:\n    /* \"#utility.yul\":3527:3649   */\ntag_105:\n    /* \"#utility.yul\":3675:3681   */\n  dup4\n    /* \"#utility.yul\":3658:4097   */\ntag_107:\n    /* \"#utility.yul\":3692:3698   */\n  dup2\n    /* \"#utility.yul\":3687:3690   */\n  dup2\n    /* \"#utility.yul\":3684:3699   */\n  lt\n    /* \"#utility.yul\":3658:4097   */\n  iszero\n  tag_109\n  jumpi\n    /* \"#utility.yul\":3774:3777   */\n  dup1\n    /* \"#utility.yul\":3768:3778   */\n  mload\n    /* \"#utility.yul\":3810:3828   */\n  0xffffffffffffffff\n    /* \"#utility.yul\":3797:3808   */\n  dup2\n    /* \"#utility.yul\":3794:3829   */\n  gt\n    /* \"#utility.yul\":3791:3913   */\n  iszero\n  tag_110\n  jumpi\n    /* \"#utility.yul\":3832:3911   */\n  tag_111\n  tag_25\n  jump\t// in\ntag_111:\n    /* \"#utility.yul\":3791:3913   */\ntag_110:\n    /* \"#utility.yul\":3956:3967   */\n  dup1\n    /* \"#utility.yul\":3948:3954   */\n  dup7\n    /* \"#utility.yul\":3944:3968   */\n  add\n    /* \"#utility.yul\":3994:4052   */\n  tag_112\n    /* \"#utility.yul\":4048:4051   */\n  dup10\n    /* \"#utility.yul\":4036:4046   */\n  dup3\n    /* \"#utility.yul\":3994:4052   */\n  tag_36\n  jump\t// in\ntag_112:\n    /* \"#utility.yul\":3989:3992   */\n  dup6\n    /* \"#utility.yul\":3982:4053   */\n  mstore\n    /* \"#utility.yul\":4082:4086   */\n  0x20\n    /* \"#utility.yul\":4077:4080   */\n  dup6\n    /* \"#utility.yul\":4073:4087   */\n  add\n    /* \"#utility.yul\":4066:4087   */\n  swap5\n  pop\n    /* \"#utility.yul\":3734:4097   */\n  pop\n  pop\n    /* \"#utility.yul\":3718:3722   */\n  0x20\n    /* \"#utility.yul\":3713:3716   */\n  dup2\n    /* \"#utility.yul\":3709:3723   */\n  add\n    /* \"#utility.yul\":3702:3723   */\n  swap1\n  pop\n    /* \"#utility.yul\":3658:4097   */\n  jump(tag_107)\ntag_109:\n    /* \"#utility.yul\":3662:3683   */\n  pop\n    /* \"#utility.yul\":3266:4103   */\n  pop\n  pop\n    /* \"#utility.yul\":3143:4103   */\n  swap4\n  swap3\n  pop\n  pop\n  pop\n  jump\t// out\n    /* \"#utility.yul\":4125:4530   */\ntag_38:\n    /* \"#utility.yul\":4217:4222   */\n  0x00\n    /* \"#utility.yul\":4266:4269   */\n  dup3\n    /* \"#utility.yul\":4259:4263   */\n  0x1f\n    /* \"#utility.yul\":4251:4257   */\n  dup4\n    /* \"#utility.yul\":4247:4264   */\n  add\n    /* \"#utility.yul\":4243:4270   */\n  slt\n    /* \"#utility.yul\":4233:4355   */\n  tag_114\n  jumpi\n    /* \"#utility.yul\":4274:4353   */\n  tag_115\n  tag_25\n  jump\t// in\ntag_115:\n    /* \"#utility.yul\":4233:4355   */\ntag_114:\n    /* \"#utility.yul\":4384:4390   */\n  dup2\n    /* \"#utility.yul\":4378:4391   */\n  mload\n    /* \"#utility.yul\":4409:4524   */\n  tag_116\n    /* \"#utility.yul\":4520:4523   */\n  dup5\n    /* \"#utility.yul\":4512:4518   */\n  dup3\n    /* \"#utility.yul\":4505:4509   */\n  0x20\n    /* \"#utility.yul\":4497:4503   */\n  dup7\n    /* \"#utility.yul\":4493:4510   */\n  add\n    /* \"#utility.yul\":4409:4524   */\n  tag_37\n  jump\t// in\ntag_116:\n    /* \"#utility.yul\":4400:4524   */\n  swap2\n  pop\n    /* \"#utility.yul\":4223:4530   */\n  pop\n    /* \"#utility.yul\":4125:4530   */\n  swap3\n  swap2\n  pop\n  pop\n  jump\t// out\n    /* \"#utility.yul\":4536:4662   */\ntag_39:\n    /* \"#utility.yul\":4573:4580   */\n  0x00\n    /* \"#utility.yul\":4613:4655   */\n  0xffffffffffffffffffffffffffffffffffffffff\n    /* \"#utility.yul\":4606:4611   */\n  dup3\n    /* \"#utility.yul\":4602:4656   */\n  and\n    /* \"#utility.yul\":4591:4656   */\n  swap1\n  pop\n    /* \"#utility.yul\":4536:4662   */\n  swap2\n  swap1\n  pop\n  jump\t// out\n    /* \"#utility.yul\":4668:4764   */\ntag_40:\n    /* \"#utility.yul\":4705:4712   */\n  0x00\n    /* \"#utility.yul\":4734:4758   */\n  tag_119\n    /* \"#utility.yul\":4752:4757   */\n  dup3\n    /* \"#utility.yul\":4734:4758   */\n  tag_39\n  jump\t// in\ntag_119:\n    /* \"#utility.yul\":4723:4758   */\n  swap1\n  pop\n    /* \"#utility.yul\":4668:4764   */\n  swap2\n  swap1\n  pop\n  jump\t// out\n    /* \"#utility.yul\":4770:4892   */\ntag_41:\n    /* \"#utility.yul\":4843:4867   */\n  tag_121\n    /* \"#utility.yul\":4861:4866   */\n  dup2\n    /* \"#utility.yul\":4843:4867   */\n  tag_40\n  jump\t// in\ntag_121:\n    /* \"#utility.yul\":4836:4841   */\n  dup2\n    /* \"#utility.yul\":4833:4868   */\n  eq\n    /* \"#utility.yul\":4823:4886   */\n  tag_122\n  jumpi\n    /* \"#utility.yul\":4882:4883   */\n  0x00\n    /* \"#utility.yul\":4879:4880   */\n  dup1\n    /* \"#utility.yul\":4872:4884   */\n  revert\n    /* \"#utility.yul\":4823:4886   */\ntag_122:\n    /* \"#utility.yul\":4770:4892   */\n  pop\n  jump\t// out\n    /* \"#utility.yul\":4898:5041   */\ntag_42:\n    /* \"#utility.yul\":4955:4960   */\n  0x00\n    /* \"#utility.yul\":4986:4992   */\n  dup2\n    /* \"#utility.yul\":4980:4993   */\n  mload\n    /* \"#utility.yul\":4971:4993   */\n  swap1\n  pop\n    /* \"#utility.yul\":5002:5035   */\n  tag_124\n    /* \"#utility.yul\":5029:5034   */\n  dup2\n    /* \"#utility.yul\":5002:5035   */\n  tag_41\n  jump\t// in\ntag_124:\n    /* \"#utility.yul\":4898:5041   */\n  swap3\n  swap2\n  pop\n  pop\n  jump\t// out\n    /* \"#utility.yul\":5047:5124   */\ntag_43:\n    /* \"#utility.yul\":5084:5091   */\n  0x00\n    /* \"#utility.yul\":5113:5118   */\n  dup2\n    /* \"#utility.yul\":5102:5118   */\n  swap1\n  pop\n    /* \"#utility.yul\":5047:5124   */\n  swap2\n  swap1\n  pop\n  jump\t// out\n    /* \"#utility.yul\":5130:5252   */\ntag_44:\n    /* \"#utility.yul\":5203:5227   */\n  tag_127\n    /* \"#utility.yul\":5221:5226   */\n  dup2\n    /* \"#utility.yul\":5203:5227   */\n  tag_43\n  jump\t// in\ntag_127:\n    /* \"#utility.yul\":5196:5201   */\n  dup2\n    /* \"#utility.yul\":5193:5228   */\n  eq\n    /* \"#utility.yul\":5183:5246   */\n  tag_128\n  jumpi\n    /* \"#utility.yul\":5242:5243   */\n  0x00\n    /* \"#utility.yul\":5239:5240   */\n  dup1\n    /* \"#utility.yul\":5232:5244   */\n  revert\n    /* \"#utility.yul\":5183:5246   */\ntag_128:\n    /* \"#utility.yul\":5130:5252   */\n  pop\n  jump\t// out\n    /* \"#utility.yul\":5258:5401   */\ntag_45:\n    /* \"#utility.yul\":5315:5320   */\n  0x00\n    /* \"#utility.yul\":5346:5352   */\n  dup2\n    /* \"#utility.yul\":5340:5353   */\n  mload\n    /* \"#utility.yul\":5331:5353   */\n  swap1\n  pop\n    /* \"#utility.yul\":5362:5395   */\n  tag_130\n    /* \"#utility.yul\":5389:5394   */\n  dup2\n    /* \"#utility.yul\":5362:5395   */\n  tag_44\n  jump\t// in\ntag_130:\n    /* \"#utility.yul\":5258:5401   */\n  swap3\n  swap2\n  pop\n  pop\n  jump\t// out\n    /* \"#utility.yul\":5407:7003   */\ntag_3:\n    /* \"#utility.yul\":5593:5599   */\n  0x00\n    /* \"#utility.yul\":5601:5607   */\n  dup1\n    /* \"#utility.yul\":5609:5615   */\n  0x00\n    /* \"#utility.yul\":5617:5623   */\n  dup1\n    /* \"#utility.yul\":5625:5631   */\n  0x00\n    /* \"#utility.yul\":5674:5677   */\n  0xa0\n    /* \"#utility.yul\":5662:5671   */\n  dup7\n    /* \"#utility.yul\":5653:5660   */\n  dup9\n    /* \"#utility.yul\":5649:5672   */\n  sub\n    /* \"#utility.yul\":5645:5678   */\n  slt\n    /* \"#utility.yul\":5642:5762   */\n  iszero\n  tag_132\n  jumpi\n    /* \"#utility.yul\":5681:5760   */\n  tag_133\n  tag_23\n  jump\t// in\ntag_133:\n    /* \"#utility.yul\":5642:5762   */\ntag_132:\n    /* \"#utility.yul\":5822:5823   */\n  0x00\n    /* \"#utility.yul\":5811:5820   */\n  dup7\n    /* \"#utility.yul\":5807:5824   */\n  add\n    /* \"#utility.yul\":5801:5825   */\n  mload\n    /* \"#utility.yul\":5852:5870   */\n  0xffffffffffffffff\n    /* \"#utility.yul\":5844:5850   */\n  dup2\n    /* \"#utility.yul\":5841:5871   */\n  gt\n    /* \"#utility.yul\":5838:5955   */\n  iszero\n  tag_134\n  jumpi\n    /* \"#utility.yul\":5874:5953   */\n  tag_135\n  tag_24\n  jump\t// in\ntag_135:\n    /* \"#utility.yul\":5838:5955   */\ntag_134:\n    /* \"#utility.yul\":5979:6078   */\n  tag_136\n    /* \"#utility.yul\":6070:6077   */\n  dup9\n    /* \"#utility.yul\":6061:6067   */\n  dup3\n    /* \"#utility.yul\":6050:6059   */\n  dup10\n    /* \"#utility.yul\":6046:6068   */\n  add\n    /* \"#utility.yul\":5979:6078   */\n  tag_38\n  jump\t// in\ntag_136:\n    /* \"#utility.yul\":5969:6078   */\n  swap6\n  pop\n    /* \"#utility.yul\":5772:6088   */\n  pop\n    /* \"#utility.yul\":6148:6150   */\n  0x20\n    /* \"#utility.yul\":6137:6146   */\n  dup7\n    /* \"#utility.yul\":6133:6151   */\n  add\n    /* \"#utility.yul\":6127:6152   */\n  mload\n    /* \"#utility.yul\":6179:6197   */\n  0xffffffffffffffff\n    /* \"#utility.yul\":6171:6177   */\n  dup2\n    /* \"#utility.yul\":6168:6198   */\n  gt\n    /* \"#utility.yul\":6165:6282   */\n  iszero\n  tag_137\n  jumpi\n    /* \"#utility.yul\":6201:6280   */\n  tag_138\n  tag_24\n  jump\t// in\ntag_138:\n    /* \"#utility.yul\":6165:6282   */\ntag_137:\n    /* \"#utility.yul\":6306:6405   */\n  tag_139\n    /* \"#utility.yul\":6397:6404   */\n  dup9\n    /* \"#utility.yul\":6388:6394   */\n  dup3\n    /* \"#utility.yul\":6377:6386   */\n  dup10\n    /* \"#utility.yul\":6373:6395   */\n  add\n    /* \"#utility.yul\":6306:6405   */\n  tag_38\n  jump\t// in\ntag_139:\n    /* \"#utility.yul\":6296:6405   */\n  swap5\n  pop\n    /* \"#utility.yul\":6098:6415   */\n  pop\n    /* \"#utility.yul\":6475:6477   */\n  0x40\n    /* \"#utility.yul\":6464:6473   */\n  dup7\n    /* \"#utility.yul\":6460:6478   */\n  add\n    /* \"#utility.yul\":6454:6479   */\n  mload\n    /* \"#utility.yul\":6506:6524   */\n  0xffffffffffffffff\n    /* \"#utility.yul\":6498:6504   */\n  dup2\n    /* \"#utility.yul\":6495:6525   */\n  gt\n    /* \"#utility.yul\":6492:6609   */\n  iszero\n  tag_140\n  jumpi\n    /* \"#utility.yul\":6528:6607   */\n  tag_141\n  tag_24\n  jump\t// in\ntag_141:\n    /* \"#utility.yul\":6492:6609   */\ntag_140:\n    /* \"#utility.yul\":6633:6707   */\n  tag_142\n    /* \"#utility.yul\":6699:6706   */\n  dup9\n    /* \"#utility.yul\":6690:6696   */\n  dup3\n    /* \"#utility.yul\":6679:6688   */\n  dup10\n    /* \"#utility.yul\":6675:6697   */\n  add\n    /* \"#utility.yul\":6633:6707   */\n  tag_36\n  jump\t// in\ntag_142:\n    /* \"#utility.yul\":6623:6707   */\n  swap4\n  pop\n    /* \"#utility.yul\":6425:6717   */\n  pop\n    /* \"#utility.yul\":6756:6758   */\n  0x60\n    /* \"#utility.yul\":6782:6846   */\n  tag_143\n    /* \"#utility.yul\":6838:6845   */\n  dup9\n    /* \"#utility.yul\":6829:6835   */\n  dup3\n    /* \"#utility.yul\":6818:6827   */\n  dup10\n    /* \"#utility.yul\":6814:6836   */\n  add\n    /* \"#utility.yul\":6782:6846   */\n  tag_42\n  jump\t// in\ntag_143:\n    /* \"#utility.yul\":6772:6846   */\n  swap3\n  pop\n    /* \"#utility.yul\":6727:6856   */\n  pop\n    /* \"#utility.yul\":6895:6898   */\n  0x80\n    /* \"#utility.yul\":6922:6986   */\n  tag_144\n    /* \"#utility.yul\":6978:6985   */\n  dup9\n    /* \"#utility.yul\":6969:6975   */\n  dup3\n    /* \"#utility.yul\":6958:6967   */\n  dup10\n    /* \"#utility.yul\":6954:6976   */\n  add\n    /* \"#utility.yul\":6922:6986   */\n  tag_45\n  jump\t// in\ntag_144:\n    /* \"#utility.yul\":6912:6986   */\n  swap2\n  pop\n    /* \"#utility.yul\":6866:6996   */\n  pop\n    /* \"#utility.yul\":5407:7003   */\n  swap3\n  swap6\n  pop\n  swap3\n  swap6\n  swap1\n  swap4\n  pop\n  jump\t// out\n    /* \"#utility.yul\":7009:7108   */\ntag_46:\n    /* \"#utility.yul\":7061:7067   */\n  0x00\n    /* \"#utility.yul\":7095:7100   */\n  dup2\n    /* \"#utility.yul\":7089:7101   */\n  mload\n    /* \"#utility.yul\":7079:7101   */\n  swap1\n  pop\n    /* \"#utility.yul\":7009:7108   */\n  swap2\n  swap1\n  pop\n  jump\t// out\n    /* \"#utility.yul\":7114:7294   */\ntag_47:\n    /* \"#utility.yul\":7162:7239   */\n  0x4e487b7100000000000000000000000000000000000000000000000000000000\n    /* \"#utility.yul\":7159:7160   */\n  0x00\n    /* \"#utility.yul\":7152:7240   */\n  mstore\n    /* \"#utility.yul\":7259:7263   */\n  0x22\n    /* \"#utility.yul\":7256:7257   */\n  0x04\n    /* \"#utility.yul\":7249:7264   */\n  mstore\n    /* \"#utility.yul\":7283:7287   */\n  0x24\n    /* \"#utility.yul\":7280:7281   */\n  0x00\n    /* \"#utility.yul\":7273:7288   */\n  revert\n    /* \"#utility.yul\":7300:7620   */\ntag_48:\n    /* \"#utility.yul\":7344:7350   */\n  0x00\n    /* \"#utility.yul\":7381:7382   */\n  0x02\n    /* \"#utility.yul\":7375:7379   */\n  dup3\n    /* \"#utility.yul\":7371:7383   */\n  div\n    /* \"#utility.yul\":7361:7383   */\n  swap1\n  pop\n    /* \"#utility.yul\":7428:7429   */\n  0x01\n    /* \"#utility.yul\":7422:7426   */\n  dup3\n    /* \"#utility.yul\":7418:7430   */\n  and\n    /* \"#utility.yul\":7449:7467   */\n  dup1\n    /* \"#utility.yul\":7439:7520   */\n  tag_148\n  jumpi\n    /* \"#utility.yul\":7505:7509   */\n  0x7f\n    /* \"#utility.yul\":7497:7503   */\n  dup3\n    /* \"#utility.yul\":7493:7510   */\n  and\n    /* \"#utility.yul\":7483:7510   */\n  swap2\n  pop\n    /* \"#utility.yul\":7439:7520   */\ntag_148:\n    /* \"#utility.yul\":7567:7569   */\n  0x20\n    /* \"#utility.yul\":7559:7565   */\n  dup3\n    /* \"#utility.yul\":7556:7570   */\n  lt\n    /* \"#utility.yul\":7536:7554   */\n  dup2\n    /* \"#utility.yul\":7533:7571   */\n  sub\n    /* \"#utility.yul\":7530:7614   */\n  tag_149\n  jumpi\n    /* \"#utility.yul\":7586:7604   */\n  tag_150\n  tag_47\n  jump\t// in\ntag_150:\n    /* \"#utility.yul\":7530:7614   */\ntag_149:\n    /* \"#utility.yul\":7351:7620   */\n  pop\n    /* \"#utility.yul\":7300:7620   */\n  swap2\n  swap1\n  pop\n  jump\t// out\n    /* \"#utility.yul\":7626:7767   */\ntag_49:\n    /* \"#utility.yul\":7675:7679   */\n  0x00\n    /* \"#utility.yul\":7698:7701   */\n  dup2\n    /* \"#utility.yul\":7690:7701   */\n  swap1\n  pop\n    /* \"#utility.yul\":7721:7724   */\n  dup2\n    /* \"#utility.yul\":7718:7719   */\n  0x00\n    /* \"#utility.yul\":7711:7725   */\n  mstore\n    /* \"#utility.yul\":7755:7759   */\n  0x20\n    /* \"#utility.yul\":7752:7753   */\n  0x00\n    /* \"#utility.yul\":7742:7760   */\n  keccak256\n    /* \"#utility.yul\":7734:7760   */\n  swap1\n  pop\n    /* \"#utility.yul\":7626:7767   */\n  swap2\n  swap1\n  pop\n  jump\t// out\n    /* \"#utility.yul\":7773:7866   */\ntag_50:\n    /* \"#utility.yul\":7810:7816   */\n  0x00\n    /* \"#utility.yul\":7857:7859   */\n  0x20\n    /* \"#utility.yul\":7852:7854   */\n  0x1f\n    /* \"#utility.yul\":7845:7850   */\n  dup4\n    /* \"#utility.yul\":7841:7855   */\n  add\n    /* \"#utility.yul\":7837:7860   */\n  div\n    /* \"#utility.yul\":7827:7860   */\n  swap1\n  pop\n    /* \"#utility.yul\":7773:7866   */\n  swap2\n  swap1\n  pop\n  jump\t// out\n    /* \"#utility.yul\":7872:7979   */\ntag_51:\n    /* \"#utility.yul\":7916:7924   */\n  0x00\n    /* \"#utility.yul\":7966:7971   */\n  dup3\n    /* \"#utility.yul\":7960:7964   */\n  dup3\n    /* \"#utility.yul\":7956:7972   */\n  shl\n    /* \"#utility.yul\":7935:7972   */\n  swap1\n  pop\n    /* \"#utility.yul\":7872:7979   */\n  swap3\n  swap2\n  pop\n  pop\n  jump\t// out\n    /* \"#utility.yul\":7985:8378   */\ntag_52:\n    /* \"#utility.yul\":8054:8060   */\n  0x00\n    /* \"#utility.yul\":8104:8105   */\n  0x08\n    /* \"#utility.yul\":8092:8102   */\n  dup4\n    /* \"#utility.yul\":8088:8106   */\n  mul\n    /* \"#utility.yul\":8127:8224   */\n  tag_155\n    /* \"#utility.yul\":8157:8223   */\n  0xffffffffffffffffffffffffffffffffffffffffffffffffffffffffffffffff\n    /* \"#utility.yul\":8146:8155   */\n  dup3\n    /* \"#utility.yul\":8127:8224   */\n  tag_51\n  jump\t// in\ntag_155:\n    /* \"#utility.yul\":8245:8284   */\n  tag_156\n    /* \"#utility.yul\":8275:8283   */\n  dup7\n    /* \"#utility.yul\":8264:8273   */\n  dup4\n    /* \"#utility.yul\":8245:8284   */\n  tag_51\n  jump\t// in\ntag_156:\n    /* \"#utility.yul\":8233:8284   */\n  swap6\n  pop\n    /* \"#utility.yul\":8317:8321   */\n  dup1\n    /* \"#utility.yul\":8313:8322   */\n  not\n    /* \"#utility.yul\":8306:8311   */\n  dup5\n    /* \"#utility.yul\":8302:8323   */\n  and\n    /* \"#utility.yul\":8293:8323   */\n  swap4\n  pop\n    /* \"#utility.yul\":8366:8370   */\n  dup1\n    /* \"#utility.yul\":8356:8364   */\n  dup7\n    /* \"#utility.yul\":8352:8371   */\n  and\n    /* \"#utility.yul\":8345:8350   */\n  dup5\n    /* \"#utility.yul\":8342:8372   */\n  or\n    /* \"#utility.yul\":8332:8372   */\n  swap3\n  pop\n    /* \"#utility.yul\":8061:8378   */\n  pop\n  pop\n    /* \"#utility.yul\":7985:8378   */\n  swap4\n  swap3\n  pop\n  pop\n  pop\n  jump\t// out\n    /* \"#utility.yul\":8384:8444   */\ntag_53:\n    /* \"#utility.yul\":8412:8415   */\n  0x00\n    /* \"#utility.yul\":8433:8438   */\n  dup2\n    /* \"#utility.yul\":8426:8438   */\n  swap1\n  pop\n    /* \"#utility.yul\":8384:8444   */\n  swap2\n  swap1\n  pop\n  jump\t// out\n    /* \"#utility.yul\":8450:8592   */\ntag_54:\n    /* \"#utility.yul\":8500:8509   */\n  0x00\n    /* \"#utility.yul\":8533:8586   */\n  tag_159\n    /* \"#utility.yul\":8551:8585   */\n  tag_160\n    /* \"#utility.yul\":8560:8584   */\n  tag_161\n    /* \"#utility.yul\":8578:8583   */\n  dup5\n    /* \"#utility.yul\":8560:8584   */\n  tag_43\n  jump\t// in\ntag_161:\n    /* \"#utility.yul\":8551:8585   */\n  tag_53\n  jump\t// in\ntag_160:\n    /* \"#utility.yul\":8533:8586   */\n  tag_43\n  jump\t// in\ntag_159:\n    /* \"#utility.yul\":8520:8586   */\n  swap1\n  pop\n    /* \"#utility.yul\":8450:8592   */\n  swap2\n  swap1\n  pop\n  jump\t// out\n    /* \"#utility.yul\":8598:8673   */\ntag_55:\n    /* \"#utility.yul\":8641:8644   */\n  0x00\n    /* \"#utility.yul\":8662:8667   */\n  dup2\n    /* \"#utility.yul\":8655:8667   */\n  swap1\n  pop\n    /* \"#utility.yul\":8598:8673   */\n  swap2\n  swap1\n  pop\n  jump\t// out\n    /* \"#utility.yul\":8679:8948   */\ntag_56:\n    /* \"#utility.yul\":8789:8828   */\n  tag_164\n    /* \"#utility.yul\":8820:8827   */\n  dup4\n    /* \"#utility.yul\":8789:8828   */\n  tag_54\n  jump\t// in\ntag_164:\n    /* \"#utility.yul\":8850:8941   */\n  tag_165\n    /* \"#utility.yul\":8899:8940   */\n  tag_166\n    /* \"#utility.yul\":8923:8939   */\n  dup3\n    /* \"#utility.yul\":8899:8940   */\n  tag_55\n  jump\t// in\ntag_166:\n    /* \"#utility.yul\":8891:8897   */\n  dup5\n    /* \"#utility.yul\":8884:8888   */\n  dup5\n    /* \"#utility.yul\":8878:8889   */\n  sload\n    /* \"#utility.yul\":8850:8941   */\n  tag_52\n  jump\t// in\ntag_165:\n    /* \"#utility.yul\":8844:8848   */\n  dup3\n    /* \"#utility.yul\":8837:8942   */\n  sstore\n    /* \"#utility.yul\":8755:8948   */\n  pop\n    /* \"#utility.yul\":8679:8948   */\n  pop\n  pop\n  pop\n  jump\t// out\n    /* \"#utility.yul\":8954:9027   */\ntag_57:\n    /* \"#utility.yul\":8999:9002   */\n  0x00\n    /* \"#utility.yul\":8954:9027   */\n  swap1\n  jump\t// out\n    /* \"#utility.yul\":9033:9222   */\ntag_58:\n    /* \"#utility.yul\":9110:9142   */\n  tag_169\n  tag_57\n  jump\t// in\ntag_169:\n    /* \"#utility.yul\":9151:9216   */\n  tag_170\n    /* \"#utility.yul\":9209:9215   */\n  dup2\n    /* \"#utility.yul\":9201:9207   */\n  dup5\n    /* \"#utility.yul\":9195:9199   */\n  dup5\n    /* \"#utility.yul\":9151:9216   */\n  tag_56\n  jump\t// in\ntag_170:\n    /* \"#utility.yul\":9086:9222   */\n  pop\n    /* \"#utility.yul\":9033:9222   */\n  pop\n  pop\n  jump\t// out\n    /* \"#utility.yul\":9228:9414   */\ntag_59:\n    /* \"#utility.yul\":9288:9408   */\ntag_172:\n    /* \"#utility.yul\":9305:9308   */\n  dup2\n    /* \"#utility.yul\":9298:9303   */\n  dup2\n    /* \"#utility.yul\":9295:9309   */\n  lt\n    /* \"#utility.yul\":9288:9408   */\n  iszero\n  tag_174\n  jumpi\n    /* \"#utility.yul\":9359:9398   */\n  tag_175\n    /* \"#utility.yul\":9396:9397   */\n  0x00\n    /* \"#utility.yul\":9389:9394   */\n  dup3\n    /* \"#utility.yul\":9359:9398   */\n  tag_58\n  jump\t// in\ntag_175:\n    /* \"#utility.yul\":9332:9333   */\n  0x01\n    /* \"#utility.yul\":9325:9330   */\n  dup2\n    /* \"#utility.yul\":9321:9334   */\n  add\n    /* \"#utility.yul\":9312:9334   */\n  swap1\n  pop\n    /* \"#utility.yul\":9288:9408   */\n  jump(tag_172)\ntag_174:\n    /* \"#utility.yul\":9228:9414   */\n  pop\n  pop\n  jump\t// out\n    /* \"#utility.yul\":9420:9963   */\ntag_60:\n    /* \"#utility.yul\":9521:9523   */\n  0x1f\n    /* \"#utility.yul\":9516:9519   */\n  dup3\n    /* \"#utility.yul\":9513:9524   */\n  gt\n    /* \"#utility.yul\":9510:9956   */\n  iszero\n  tag_177\n  jumpi\n    /* \"#utility.yul\":9555:9593   */\n  tag_178\n    /* \"#utility.yul\":9587:9592   */\n  dup2\n    /* \"#utility.yul\":9555:9593   */\n  tag_49\n  jump\t// in\ntag_178:\n    /* \"#utility.yul\":9639:9668   */\n  tag_179\n    /* \"#utility.yul\":9657:9667   */\n  dup5\n    /* \"#utility.yul\":9639:9668   */\n  tag_50\n  jump\t// in\ntag_179:\n    /* \"#utility.yul\":9629:9637   */\n  dup2\n    /* \"#utility.yul\":9625:9669   */\n  add\n    /* \"#utility.yul\":9822:9824   */\n  0x20\n    /* \"#utility.yul\":9810:9820   */\n  dup6\n    /* \"#utility.yul\":9807:9825   */\n  lt\n    /* \"#utility.yul\":9804:9853   */\n  iszero\n  tag_180\n  jumpi\n    /* \"#utility.yul\":9843:9851   */\n  dup2\n    /* \"#utility.yul\":9828:9851   */\n  swap1\n  pop\n    /* \"#utility.yul\":9804:9853   */\ntag_180:\n    /* \"#utility.yul\":9866:9946   */\n  tag_181\n    /* \"#utility.yul\":9922:9944   */\n  tag_182\n    /* \"#utility.yul\":9940:9943   */\n  dup6\n    /* \"#utility.yul\":9922:9944   */\n  tag_50\n  jump\t// in\ntag_182:\n    /* \"#utility.yul\":9912:9920   */\n  dup4\n    /* \"#utility.yul\":9908:9945   */\n  add\n    /* \"#utility.yul\":9895:9906   */\n  dup3\n    /* \"#utility.yul\":9866:9946   */\n  tag_59\n  jump\t// in\ntag_181:\n    /* \"#utility.yul\":9525:9956   */\n  pop\n  pop\n    /* \"#utility.yul\":9510:9956   */\ntag_177:\n    /* \"#utility.yul\":9420:9963   */\n  pop\n  pop\n  pop\n  jump\t// out\n    /* \"#utility.yul\":9969:10086   */\ntag_61:\n    /* \"#utility.yul\":10023:10031   */\n  0x00\n    /* \"#utility.yul\":10073:10078   */\n  dup3\n    /* \"#utility.yul\":10067:10071   */\n  dup3\n    /* \"#utility.yul\":10063:10079   */\n  shr\n    /* \"#utility.yul\":10042:10079   */\n  swap1\n  pop\n    /* \"#utility.yul\":9969:10086   */\n  swap3\n  swap2\n  pop\n  pop\n  jump\t// out\n    /* \"#utility.yul\":10092:10261   */\ntag_62:\n    /* \"#utility.yul\":10136:10142   */\n  0x00\n    /* \"#utility.yul\":10169:10220   */\n  tag_185\n    /* \"#utility.yul\":10217:10218   */\n  0x00\n    /* \"#utility.yul\":10213:10219   */\n  not\n    /* \"#utility.yul\":10205:10210   */\n  dup5\n    /* \"#utility.yul\":10202:10203   */\n  0x08\n    /* \"#utility.yul\":10198:10211   */\n  mul\n    /* \"#utility.yul\":10169:10220   */\n  tag_61\n  jump\t// in\ntag_185:\n    /* \"#utility.yul\":10165:10221   */\n  not\n    /* \"#utility.yul\":10250:10254   */\n  dup1\n    /* \"#utility.yul\":10244:10248   */\n  dup4\n    /* \"#utility.yul\":10240:10255   */\n  and\n    /* \"#utility.yul\":10230:10255   */\n  swap2\n  pop\n    /* \"#utility.yul\":10143:10261   */\n  pop\n    /* \"#utility.yul\":10092:10261   */\n  swap3\n  swap2\n  pop\n  pop\n  jump\t// out\n    /* \"#utility.yul\":10266:10561   */\ntag_63:\n    /* \"#utility.yul\":10342:10346   */\n  0x00\n    /* \"#utility.yul\":10488:10517   */\n  tag_187\n    /* \"#utility.yul\":10513:10516   */\n  dup4\n    /* \"#utility.yul\":10507:10511   */\n  dup4\n    /* \"#utility.yul\":10488:10517   */\n  tag_62\n  jump\t// in\ntag_187:\n    /* \"#utility.yul\":10480:10517   */\n  swap2\n  pop\n    /* \"#utility.yul\":10550:10553   */\n  dup3\n    /* \"#utility.yul\":10547:10548   */\n  0x02\n    /* \"#utility.yul\":10543:10554   */\n  mul\n    /* \"#utility.yul\":10537:10541   */\n  dup3\n    /* \"#utility.yul\":10534:10555   */\n  or\n    /* \"#utility.yul\":10526:10555   */\n  swap1\n  pop\n    /* \"#utility.yul\":10266:10561   */\n  swap3\n  swap2\n  pop\n  pop\n  jump\t// out\n    /* \"#utility.yul\":10566:11961   */\ntag_7:\n    /* \"#utility.yul\":10683:10720   */\n  tag_189\n    /* \"#utility.yul\":10716:10719   */\n  dup3\n    /* \"#utility.yul\":10683:10720   */\n  tag_46\n  jump\t// in\ntag_189:\n    /* \"#utility.yul\":10785:10803   */\n  0xffffffffffffffff\n    /* \"#utility.yul\":10777:10783   */\n  dup2\n    /* \"#utility.yul\":10774:10804   */\n  gt\n    /* \"#utility.yul\":10771:10827   */\n  iszero\n  tag_190\n  jumpi\n    /* \"#utility.yul\":10807:10825   */\n  tag_191\n  tag_27\n  jump\t// in\ntag_191:\n    /* \"#utility.yul\":10771:10827   */\ntag_190:\n    /* \"#utility.yul\":10851:10889   */\n  tag_192\n    /* \"#utility.yul\":10883:10887   */\n  dup3\n    /* \"#utility.yul\":10877:10888   */\n  sload\n    /* \"#utility.yul\":10851:10889   */\n  tag_48\n  jump\t// in\ntag_192:\n    /* \"#utility.yul\":10936:11003   */\n  tag_193\n    /* \"#utility.yul\":10996:11002   */\n  dup3\n    /* \"#utility.yul\":10988:10994   */\n  dup3\n    /* \"#utility.yul\":10982:10986   */\n  dup6\n    /* \"#utility.yul\":10936:11003   */\n  tag_60\n  jump\t// in\ntag_193:\n    /* \"#utility.yul\":11030:11031   */\n  0x00\n    /* \"#utility.yul\":11054:11058   */\n  0x20\n    /* \"#utility.yul\":11041:11058   */\n  swap1\n  pop\n    /* \"#utility.yul\":11086:11088   */\n  0x1f\n    /* \"#utility.yul\":11078:11084   */\n  dup4\n    /* \"#utility.yul\":11075:11089   */\n  gt\n    /* \"#utility.yul\":11103:11104   */\n  0x01\n    /* \"#utility.yul\":11098:11716   */\n  dup2\n  eq\n  tag_195\n  jumpi\n    /* \"#utility.yul\":11760:11761   */\n  0x00\n    /* \"#utility.yul\":11777:11783   */\n  dup5\n    /* \"#utility.yul\":11774:11851   */\n  iszero\n  tag_196\n  jumpi\n    /* \"#utility.yul\":11826:11835   */\n  dup3\n    /* \"#utility.yul\":11821:11824   */\n  dup8\n    /* \"#utility.yul\":11817:11836   */\n  add\n    /* \"#utility.yul\":11811:11837   */\n  mload\n    /* \"#utility.yul\":11802:11837   */\n  swap1\n  pop\n    /* \"#utility.yul\":11774:11851   */\ntag_196:\n    /* \"#utility.yul\":11877:11944   */\n  tag_197\n    /* \"#utility.yul\":11937:11943   */\n  dup6\n    /* \"#utility.yul\":11930:11935   */\n  dup3\n    /* \"#utility.yul\":11877:11944   */\n  tag_63\n  jump\t// in\ntag_197:\n    /* \"#utility.yul\":11871:11875   */\n  dup7\n    /* \"#utility.yul\":11864:11945   */\n  sstore\n    /* \"#utility.yul\":11733:11955   */\n  pop\n    /* \"#utility.yul\":11068:11955   */\n  jump(tag_194)\n    /* \"#utility.yul\":11098:11716   */\ntag_195:\n    /* \"#utility.yul\":11150:11154   */\n  0x1f\n    /* \"#utility.yul\":11146:11155   */\n  not\n    /* \"#utility.yul\":11138:11144   */\n  dup5\n    /* \"#utility.yul\":11134:11156   */\n  and\n    /* \"#utility.yul\":11184:11221   */\n  tag_198\n    /* \"#utility.yul\":11216:11220   */\n  dup7\n    /* \"#utility.yul\":11184:11221   */\n  tag_49\n  jump\t// in\ntag_198:\n    /* \"#utility.yul\":11243:11244   */\n  0x00\n    /* \"#utility.yul\":11257:11465   */\ntag_199:\n    /* \"#utility.yul\":11271:11278   */\n  dup3\n    /* \"#utility.yul\":11268:11269   */\n  dup2\n    /* \"#utility.yul\":11265:11279   */\n  lt\n    /* \"#utility.yul\":11257:11465   */\n  iszero\n  tag_201\n  jumpi\n    /* \"#utility.yul\":11350:11359   */\n  dup5\n    /* \"#utility.yul\":11345:11348   */\n  dup10\n    /* \"#utility.yul\":11341:11360   */\n  add\n    /* \"#utility.yul\":11335:11361   */\n  mload\n    /* \"#utility.yul\":11327:11333   */\n  dup3\n    /* \"#utility.yul\":11320:11362   */\n  sstore\n    /* \"#utility.yul\":11401:11402   */\n  0x01\n    /* \"#utility.yul\":11393:11399   */\n  dup3\n    /* \"#utility.yul\":11389:11403   */\n  add\n    /* \"#utility.yul\":11379:11403   */\n  swap2\n  pop\n    /* \"#utility.yul\":11448:11450   */\n  0x20\n    /* \"#utility.yul\":11437:11446   */\n  dup6\n    /* \"#utility.yul\":11433:11451   */\n  add\n    /* \"#utility.yul\":11420:11451   */\n  swap5\n  pop\n    /* \"#utility.yul\":11294:11298   */\n  0x20\n    /* \"#utility.yul\":11291:11292   */\n  dup2\n    /* \"#utility.yul\":11287:11299   */\n  add\n    /* \"#utility.yul\":11282:11299   */\n  swap1\n  pop\n    /* \"#utility.yul\":11257:11465   */\n  jump(tag_199)\ntag_201:\n    /* \"#utility.yul\":11493:11499   */\n  dup7\n    /* \"#utility.yul\":11484:11491   */\n  dup4\n    /* \"#utility.yul\":11481:11500   */\n  lt\n    /* \"#utility.yul\":11478:11657   */\n  iszero\n  tag_202\n  jumpi\n    /* \"#utility.yul\":11551:11560   */\n  dup5\n    /* \"#utility.yul\":11546:11549   */\n  dup10\n    /* \"#utility.yul\":11542:11561   */\n  add\n    /* \"#utility.yul\":11536:11562   */\n  mload\n    /* \"#utility.yul\":11594:11642   */\n  tag_203\n    /* \"#utility.yul\":11636:11640   */\n  0x1f\n    /* \"#utility.yul\":11628:11634   */\n  dup10\n    /* \"#utility.yul\":11624:11641   */\n  and\n    /* \"#utility.yul\":11613:11622   */\n  dup3\n    /* \"#utility.yul\":11594:11642   */\n  tag_62\n  jump\t// in\ntag_203:\n    /* \"#utility.yul\":11586:11592   */\n  dup4\n    /* \"#utility.yul\":11579:11643   */\n  sstore\n    /* \"#utility.yul\":11501:11657   */\n  pop\n    /* \"#utility.yul\":11478:11657   */\ntag_202:\n    /* \"#utility.yul\":11703:11704   */\n  0x01\n    /* \"#utility.yul\":11699:11700   */\n  0x02\n    /* \"#utility.yul\":11691:11697   */\n  dup9\n    /* \"#utility.yul\":11687:11701   */\n  mul\n    /* \"#utility.yul\":11683:11705   */\n  add\n    /* \"#utility.yul\":11677:11681   */\n  dup9\n    /* \"#utility.yul\":11670:11706   */\n  sstore\n    /* \"#utility.yul\":11105:11716   */\n  pop\n  pop\n  pop\n    /* \"#utility.yul\":11068:11955   */\ntag_194:\n  pop\n    /* \"#utility.yul\":10658:11961   */\n  pop\n  pop\n  pop\n    /* \"#utility.yul\":10566:11961   */\n  pop\n  pop\n  jump\t// out\n    /* \"#utility.yul\":11967:12147   */\ntag_13:\n    /* \"#utility.yul\":12015:12092   */\n  0x4e487b7100000000000000000000000000000000000000000000000000000000\n    /* \"#utility.yul\":12012:12013   */\n  0x00\n    /* \"#utility.yul\":12005:12093   */\n  mstore\n    /* \"#utility.yul\":12112:12116   */\n  0x32\n    /* \"#utility.yul\":12109:12110   */\n  0x04\n    /* \"#utility.yul\":12102:12117   */\n  mstore\n    /* \"#utility.yul\":12136:12140   */\n  0x24\n    /* \"#utility.yul\":12133:12134   */\n  0x00\n    /* \"#utility.yul\":12126:12141   */\n  revert\n    /* \"#utility.yul\":12153:12333   */\ntag_64:\n    /* \"#utility.yul\":12201:12278   */\n  0x4e487b7100000000000000000000000000000000000000000000000000000000\n    /* \"#utility.yul\":12198:12199   */\n  0x00\n    /* \"#utility.yul\":12191:12279   */\n  mstore\n    /* \"#utility.yul\":12298:12302   */\n  0x11\n    /* \"#utility.yul\":12295:12296   */\n  0x04\n    /* \"#utility.yul\":12288:12303   */\n  mstore\n    /* \"#utility.yul\":12322:12326   */\n  0x24\n    /* \"#utility.yul\":12319:12320   */\n  0x00\n    /* \"#utility.yul\":12312:12327   */\n  revert\n    /* \"#utility.yul\":12339:12530   */\ntag_17:\n    /* \"#utility.yul\":12379:12382   */\n  0x00\n    /* \"#utility.yul\":12398:12418   */\n  tag_207\n    /* \"#utility.yul\":12416:12417   */\n  dup3\n    /* \"#utility.yul\":12398:12418   */\n  tag_43\n  jump\t// in\ntag_207:\n    /* \"#utility.yul\":12393:12418   */\n  swap2\n  pop\n    /* \"#utility.yul\":12432:12452   */\n  tag_208\n    /* \"#utility.yul\":12450:12451   */\n  dup4\n    /* \"#utility.yul\":12432:12452   */\n  tag_43\n  jump\t// in\ntag_208:\n    /* \"#utility.yul\":12427:12452   */\n  swap3\n  pop\n    /* \"#utility.yul\":12475:12476   */\n  dup3\n    /* \"#utility.yul\":12472:12473   */\n  dup3\n    /* \"#utility.yul\":12468:12477   */\n  add\n    /* \"#utility.yul\":12461:12477   */\n  swap1\n  pop\n    /* \"#utility.yul\":12496:12499   */\n  dup1\n    /* \"#utility.yul\":12493:12494   */\n  dup3\n    /* \"#utility.yul\":12490:12500   */\n  gt\n    /* \"#utility.yul\":12487:12523   */\n  iszero\n  tag_209\n  jumpi\n    /* \"#utility.yul\":12503:12521   */\n  tag_210\n  tag_64\n  jump\t// in\ntag_210:\n    /* \"#utility.yul\":12487:12523   */\ntag_209:\n    /* \"#utility.yul\":12339:12530   */\n  swap3\n  swap2\n  pop\n  pop\n  jump\t// out\n    /* \"evs.sol\":668:2345  contract Ballot ... */\ntag_21:\n  dataSize(sub_0)\n  dup1\n  dataOffset(sub_0)\n  0x00\n  codecopy\n  0x00\n  return\nstop\n\nsub_0: assembly {\n        /* \"evs.sol\":668:2345  contract Ballot ... */\n      mstore(0x40, 0x80)\n      callvalue\n      dup1\n      iszero\n      tag_1\n      jumpi\n      0x00\n      dup1\n      revert\n    tag_1:\n      pop\n      jumpi(tag_2, lt(calldatasize, 0x04))\n      shr(0xe0, calldataload(0x00))\n      dup1\n      0x716c424e\n      gt\n      tag_11\n      jumpi\n      dup1\n      0x716c424e\n      eq\n      tag_7\n      jumpi\n      dup1\n      0xa3ec138d\n      eq\n      tag_8\n      jumpi\n      dup1\n      0xb2c2f2e8\n      eq\n      tag_9\n      jumpi\n      dup1\n      0xe13804a7\n      eq\n      tag_10\n      jumpi\n      jump(tag_2)\n    tag_11:\n      dup1\n      0x0121b93f\n      eq\n      tag_3\n      jumpi\n      dup1\n      0x3477ee2e\n      eq\n      tag_4\n      jumpi\n      dup1\n      0x456645a7\n      eq\n      tag_5\n      jumpi\n      dup1\n      0x481c6a75\n      eq\n      tag_6\n      jumpi\n    tag_2:\n      0x00\n      dup1\n      revert\n        /* \"evs.sol\":1544:1779  function vote(uint index) public... */\n    tag_3:\n      tag_12\n      0x04\n      dup1\n      calldatasize\n      sub\n      dup2\n      add\n      swap1\n      tag_13\n      swap2\n      swap1\n      tag_14\n      jump\t// in\n    tag_13:\n      tag_15\n      jump\t// in\n    tag_12:\n      stop\n        /* \"evs.sol\":824:853  candidate[] public candidates */\n    tag_4:\n      tag_16\n      0x04\n      dup1\n      calldatasize\n      sub\n      dup2\n      add\n      swap1\n      tag_17\n      swap2\n      swap1\n      tag_14\n      jump\t// in\n    tag_17:\n      tag_18\n      jump\t// in\n    tag_16:\n      mload(0x40)\n      tag_19\n      swap6\n      swap5\n      swap4\n      swap3\n      swap2\n      swap1\n      tag_20\n      jump\t// in\n    tag_19:\n      mload(0x40)\n      dup1\n      swap2\n      sub\n      swap1\n      return\n        /* \"evs.sol\":1975:2167  function getCandidateParty(uint index) public restricted view returns (string memory)... */\n    tag_5:\n      tag_21\n      0x04\n      dup1\n      calldatasize\n      sub\n      dup2\n      add\n      swap1\n      tag_22\n      swap2\n      swap1\n      tag_14\n      jump\t// in\n    tag_22:\n      tag_23\n      jump\t// in\n    tag_21:\n      mload(0x40)\n      tag_24\n      swap2\n      swap1\n      tag_25\n      jump\t// in\n    tag_24:\n      mload(0x40)\n      dup1\n      swap2\n      sub\n      swap1\n      return\n        /* \"evs.sol\":856:878  address public manager */\n    tag_6:\n      tag_26\n      tag_27\n      jump\t// in\n    tag_26:\n      mload(0x40)\n      tag_28\n      swap2\n      swap1\n      tag_29\n      jump\t// in\n    tag_28:\n      mload(0x40)\n      dup1\n      swap2\n      sub\n      swap1\n      return\n        /* \"evs.sol\":881:909  string public votingDistrict */\n    tag_7:\n      tag_30\n      tag_31\n      jump\t// in\n    tag_30:\n      mload(0x40)\n      tag_32\n      swap2\n      swap1\n      tag_25\n      jump\t// in\n    tag_32:\n      mload(0x40)\n      dup1\n      swap2\n      sub\n      swap1\n      return\n        /* \"evs.sol\":912:951  mapping (address => bool) public voters */\n    tag_8:\n      tag_33\n      0x04\n      dup1\n      calldatasize\n      sub\n      dup2\n      add\n      swap1\n      tag_34\n      swap2\n      swap1\n      tag_35\n      jump\t// in\n    tag_34:\n      tag_36\n      jump\t// in\n    tag_33:\n      mload(0x40)\n      tag_37\n      swap2\n      swap1\n      tag_38\n      jump\t// in\n    tag_37:\n      mload(0x40)\n      dup1\n      swap2\n      sub\n      swap1\n      return\n        /* \"evs.sol\":2171:2340  function getVoteCount(uint index)... */\n    tag_9:\n      tag_39\n      0x04\n      dup1\n      calldatasize\n      sub\n      dup2\n      add\n      swap1\n      tag_40\n      swap2\n      swap1\n      tag_14\n      jump\t// in\n    tag_40:\n      tag_41\n      jump\t// in\n    tag_39:\n      mload(0x40)\n      tag_42\n      swap2\n      swap1\n      tag_43\n      jump\t// in\n    tag_42:\n      mload(0x40)\n      dup1\n      swap2\n      sub\n      swap1\n      return\n        /* \"evs.sol\":1783:1973  function getCandidateName(uint index) public restricted view returns (string memory)... */\n    tag_10:\n      tag_44\n      0x04\n      dup1\n      calldatasize\n      sub\n      dup2\n      add\n      swap1\n      tag_45\n      swap2\n      swap1\n      tag_14\n      jump\t// in\n    tag_45:\n      tag_46\n      jump\t// in\n    tag_44:\n      mload(0x40)\n      tag_47\n      swap2\n      swap1\n      tag_25\n      jump\t// in\n    tag_47:\n      mload(0x40)\n      dup1\n      swap2\n      sub\n      swap1\n      return\n        /* \"evs.sol\":1544:1779  function vote(uint index) public... */\n    tag_15:\n        /* \"evs.sol\":1599:1605  voters */\n      0x03\n        /* \"evs.sol\":1599:1617  voters[msg.sender] */\n      0x00\n        /* \"evs.sol\":1606:1616  msg.sender */\n      caller\n        /* \"evs.sol\":1599:1617  voters[msg.sender] */\n      0xffffffffffffffffffffffffffffffffffffffff\n      and\n      0xffffffffffffffffffffffffffffffffffffffff\n      and\n      dup2\n      mstore\n      0x20\n      add\n      swap1\n      dup2\n      mstore\n      0x20\n      add\n      0x00\n      keccak256\n      0x00\n      swap1\n      sload\n      swap1\n      0x0100\n      exp\n      swap1\n      div\n      0xff\n      and\n        /* \"evs.sol\":1597:1617  ! voters[msg.sender] */\n      iszero\n        /* \"evs.sol\":1589:1618  require(! voters[msg.sender]) */\n      tag_49\n      jumpi\n      0x00\n      dup1\n      revert\n    tag_49:\n        /* \"evs.sol\":1738:1739  1 */\n      0x01\n        /* \"evs.sol\":1708:1718  candidates */\n      0x00\n        /* \"evs.sol\":1719:1724  index */\n      dup3\n        /* \"evs.sol\":1708:1725  candidates[index] */\n      dup2\n      sload\n      dup2\n      lt\n      tag_50\n      jumpi\n      tag_51\n      tag_52\n      jump\t// in\n    tag_51:\n    tag_50:\n      swap1\n      0x00\n      mstore\n      keccak256(0x00, 0x20)\n      swap1\n      0x05\n      mul\n      add\n        /* \"evs.sol\":1708:1735  candidates[index].voteCount */\n      0x02\n      add\n      0x00\n        /* \"evs.sol\":1708:1739  candidates[index].voteCount +=1 */\n      dup3\n      dup3\n      sload\n      tag_54\n      swap2\n      swap1\n      tag_55\n      jump\t// in\n    tag_54:\n      swap3\n      pop\n      pop\n      dup2\n      swap1\n      sstore\n      pop\n        /* \"evs.sol\":1767:1771  true */\n      0x01\n        /* \"evs.sol\":1746:1752  voters */\n      0x03\n        /* \"evs.sol\":1746:1764  voters[msg.sender] */\n      0x00\n        /* \"evs.sol\":1753:1763  msg.sender */\n      caller\n        /* \"evs.sol\":1746:1764  voters[msg.sender] */\n      0xffffffffffffffffffffffffffffffffffffffff\n      and\n      0xffffffffffffffffffffffffffffffffffffffff\n      and\n      dup2\n      mstore\n      0x20\n      add\n      swap1\n      dup2\n      mstore\n      0x20\n      add\n      0x00\n      keccak256\n      0x00\n        /* \"evs.sol\":1746:1771  voters[msg.sender] = true */\n      0x0100\n      exp\n      dup2\n      sload\n      dup2\n      0xff\n      mul\n      not\n      and\n      swap1\n      dup4\n      iszero\n      iszero\n      mul\n      or\n      swap1\n      sstore\n      pop\n        /* \"evs.sol\":1544:1779  function vote(uint index) public... */\n      pop\n      jump\t// out\n        /* \"evs.sol\":824:853  candidate[] public candidates */\n    tag_18:\n      0x00\n      dup2\n      dup2\n      sload\n      dup2\n      lt\n      tag_56\n      jumpi\n      0x00\n      dup1\n      revert\n    tag_56:\n      swap1\n      0x00\n      mstore\n      keccak256(0x00, 0x20)\n      swap1\n      0x05\n      mul\n      add\n      0x00\n      swap2\n      pop\n      swap1\n      pop\n      dup1\n      0x00\n      add\n      dup1\n      sload\n      tag_58\n      swap1\n      tag_59\n      jump\t// in\n    tag_58:\n      dup1\n      0x1f\n      add\n      0x20\n      dup1\n      swap2\n      div\n      mul\n      0x20\n      add\n      mload(0x40)\n      swap1\n      dup2\n      add\n      0x40\n      mstore\n      dup1\n      swap3\n      swap2\n      swap1\n      dup2\n      dup2\n      mstore\n      0x20\n      add\n      dup3\n      dup1\n      sload\n      tag_60\n      swap1\n      tag_59\n      jump\t// in\n    tag_60:\n      dup1\n      iszero\n      tag_61\n      jumpi\n      dup1\n      0x1f\n      lt\n      tag_62\n      jumpi\n      0x0100\n      dup1\n      dup4\n      sload\n      div\n      mul\n      dup4\n      mstore\n      swap2\n      0x20\n      add\n      swap2\n      jump(tag_61)\n    tag_62:\n      dup3\n      add\n      swap2\n      swap1\n      0x00\n      mstore\n      keccak256(0x00, 0x20)\n      swap1\n    tag_63:\n      dup2\n      sload\n      dup2\n      mstore\n      swap1\n      0x01\n      add\n      swap1\n      0x20\n      add\n      dup1\n      dup4\n      gt\n      tag_63\n      jumpi\n      dup3\n      swap1\n      sub\n      0x1f\n      and\n      dup3\n      add\n      swap2\n    tag_61:\n      pop\n      pop\n      pop\n      pop\n      pop\n      swap1\n      dup1\n      0x01\n      add\n      dup1\n      sload\n      tag_64\n      swap1\n      tag_59\n      jump\t// in\n    tag_64:\n      dup1\n      0x1f\n      add\n      0x20\n      dup1\n      swap2\n      div\n      mul\n      0x20\n      add\n      mload(0x40)\n      swap1\n      dup2\n      add\n      0x40\n      mstore\n      dup1\n      swap3\n      swap2\n      swap1\n      dup2\n      dup2\n      mstore\n      0x20\n      add\n      dup3\n      dup1\n      sload\n      tag_65\n      swap1\n      tag_59\n      jump\t// in\n    tag_65:\n      dup1\n      iszero\n      tag_66\n      jumpi\n      dup1\n      0x1f\n      lt\n      tag_67\n      jumpi\n      0x0100\n      dup1\n      dup4\n      sload\n      div\n      mul\n      dup4\n      mstore\n      swap2\n      0x20\n      add\n      swap2\n      jump(tag_66)\n    tag_67:\n      dup3\n      add\n      swap2\n      swap1\n      0x00\n      mstore\n      keccak256(0x00, 0x20)\n      swap1\n    tag_68:\n      dup2\n      sload\n      dup2\n      mstore\n      swap1\n      0x01\n      add\n      swap1\n      0x20\n      add\n      dup1\n      dup4\n      gt\n      tag_68\n      jumpi\n      dup3\n      swap1\n      sub\n      0x1f\n      and\n      dup3\n      add\n      swap2\n    tag_66:\n      pop\n      pop\n      pop\n      pop\n      pop\n      swap1\n      dup1\n      0x02\n      add\n      sload\n      swap1\n      dup1\n      0x03\n      add\n      sload\n      swap1\n      dup1\n      0x04\n      add\n      sload\n      swap1\n      pop\n      dup6\n      jump\t// out\n        /* \"evs.sol\":1975:2167  function getCandidateParty(uint index) public restricted view returns (string memory)... */\n    tag_23:\n        /* \"evs.sol\":2046:2059  string memory */\n      0x60\n        /* \"evs.sol\":1002:1009  manager */\n      0x01\n      0x00\n      swap1\n      sload\n      swap1\n      0x0100\n      exp\n      swap1\n      div\n      0xffffffffffffffffffffffffffffffffffffffff\n      and\n        /* \"evs.sol\":989:1009  msg.sender== manager */\n      0xffffffffffffffffffffffffffffffffffffffff\n      and\n        /* \"evs.sol\":989:999  msg.sender */\n      caller\n        /* \"evs.sol\":989:1009  msg.sender== manager */\n      0xffffffffffffffffffffffffffffffffffffffff\n      and\n      eq\n        /* \"evs.sol\":981:1010  require(msg.sender== manager) */\n      tag_70\n      jumpi\n      0x00\n      dup1\n      revert\n    tag_70:\n        /* \"evs.sol\":2093:2103  candidates */\n      0x00\n        /* \"evs.sol\":2104:2109  index */\n      dup3\n        /* \"evs.sol\":2093:2110  candidates[index] */\n      dup2\n      sload\n      dup2\n      lt\n      tag_72\n      jumpi\n      tag_73\n      tag_52\n      jump\t// in\n    tag_73:\n    tag_72:\n      swap1\n      0x00\n      mstore\n      keccak256(0x00, 0x20)\n      swap1\n      0x05\n      mul\n      add\n        /* \"evs.sol\":2093:2125  candidates[index].expirationDate */\n      0x04\n      add\n      sload\n        /* \"evs.sol\":2077:2092  block.timestamp */\n      timestamp\n        /* \"evs.sol\":2077:2125  block.timestamp>candidates[index].expirationDate */\n      gt\n        /* \"evs.sol\":2069:2126  require(block.timestamp>candidates[index].expirationDate) */\n      tag_75\n      jumpi\n      0x00\n      dup1\n      revert\n    tag_75:\n        /* \"evs.sol\":2140:2150  candidates */\n      0x00\n        /* \"evs.sol\":2151:2156  index */\n      dup3\n        /* \"evs.sol\":2140:2157  candidates[index] */\n      dup2\n      sload\n      dup2\n      lt\n      tag_76\n      jumpi\n      tag_77\n      tag_52\n      jump\t// in\n    tag_77:\n    tag_76:\n      swap1\n      0x00\n      mstore\n      keccak256(0x00, 0x20)\n      swap1\n      0x05\n      mul\n      add\n        /* \"evs.sol\":2140:2163  candidates[index].party */\n      0x01\n      add\n        /* \"evs.sol\":2133:2163  return candidates[index].party */\n      dup1\n      sload\n      tag_79\n      swap1\n      tag_59\n      jump\t// in\n    tag_79:\n      dup1\n      0x1f\n      add\n      0x20\n      dup1\n      swap2\n      div\n      mul\n      0x20\n      add\n      mload(0x40)\n      swap1\n      dup2\n      add\n      0x40\n      mstore\n      dup1\n      swap3\n      swap2\n      swap1\n      dup2\n      dup2\n      mstore\n      0x20\n      add\n      dup3\n      dup1\n      sload\n      tag_80\n      swap1\n      tag_59\n      jump\t// in\n    tag_80:\n      dup1\n      iszero\n      tag_81\n      jumpi\n      dup1\n      0x1f\n      lt\n      tag_82\n      jumpi\n      0x0100\n      dup1\n      dup4\n      sload\n      div\n      mul\n      dup4\n      mstore\n      swap2\n      0x20\n      add\n      swap2\n      jump(tag_81)\n    tag_82:\n      dup3\n      add\n      swap2\n      swap1\n      0x00\n      mstore\n      keccak256(0x00, 0x20)\n      swap1\n    tag_83:\n      dup2\n      sload\n      dup2\n      mstore\n      swap1\n      0x01\n      add\n      swap1\n      0x20\n      add\n      dup1\n      dup4\n      gt\n      tag_83\n      jumpi\n      dup3\n      swap1\n      sub\n      0x1f\n      and\n      dup3\n      add\n      swap2\n    tag_81:\n      pop\n      pop\n      pop\n      pop\n      pop\n      swap1\n      pop\n        /* \"evs.sol\":1975:2167  function getCandidateParty(uint index) public restricted view returns (string memory)... */\n      swap2\n      swap1\n      pop\n      jump\t// out\n        /* \"evs.sol\":856:878  address public manager */\n    tag_27:\n      0x01\n      0x00\n      swap1\n      sload\n      swap1\n      0x0100\n      exp\n      swap1\n      div\n      0xffffffffffffffffffffffffffffffffffffffff\n      and\n      dup2\n      jump\t// out\n        /* \"evs.sol\":881:909  string public votingDistrict */\n    tag_31:\n      0x02\n      dup1\n      sload\n      tag_84\n      swap1\n      tag_59\n      jump\t// in\n    tag_84:\n      dup1\n      0x1f\n      add\n      0x20\n      dup1\n      swap2\n      div\n      mul\n      0x20\n      add\n      mload(0x40)\n      swap1\n      dup2\n      add\n      0x40\n      mstore\n      dup1\n      swap3\n      swap2\n      swap1\n      dup2\n      dup2\n      mstore\n      0x20\n      add\n      dup3\n      dup1\n      sload\n      tag_85\n      swap1\n      tag_59\n      jump\t// in\n    tag_85:\n      dup1\n      iszero\n      tag_86\n      jumpi\n      dup1\n      0x1f\n      lt\n      tag_87\n      jumpi\n      0x0100\n      dup1\n      dup4\n      sload\n      div\n      mul\n      dup4\n      mstore\n      swap2\n      0x20\n      add\n      swap2\n      jump(tag_86)\n    tag_87:\n      dup3\n      add\n      swap2\n      swap1\n      0x00\n      mstore\n      keccak256(0x00, 0x20)\n      swap1\n    tag_88:\n      dup2\n      sload\n      dup2\n      mstore\n      swap1\n      0x01\n      add\n      swap1\n      0x20\n      add\n      dup1\n      dup4\n      gt\n      tag_88\n      jumpi\n      dup3\n      swap1\n      sub\n      0x1f\n      and\n      dup3\n      add\n      swap2\n    tag_86:\n      pop\n      pop\n      pop\n      pop\n      pop\n      dup2\n      jump\t// out\n        /* \"evs.sol\":912:951  mapping (address => bool) public voters */\n    tag_36:\n      mstore(0x20, 0x03)\n      dup1\n      0x00\n      mstore\n      keccak256(0x00, 0x40)\n      0x00\n      swap2\n      pop\n      sload\n      swap1\n      0x0100\n      exp\n      swap1\n      div\n      0xff\n      and\n      dup2\n      jump\t// out\n        /* \"evs.sol\":2171:2340  function getVoteCount(uint index)... */\n    tag_41:\n        /* \"evs.sol\":2238:2242  uint */\n      0x00\n        /* \"evs.sol\":1002:1009  manager */\n      0x01\n      0x00\n      swap1\n      sload\n      swap1\n      0x0100\n      exp\n      swap1\n      div\n      0xffffffffffffffffffffffffffffffffffffffff\n      and\n        /* \"evs.sol\":989:1009  msg.sender== manager */\n      0xffffffffffffffffffffffffffffffffffffffff\n      and\n        /* \"evs.sol\":989:999  msg.sender */\n      caller\n        /* \"evs.sol\":989:1009  msg.sender== manager */\n      0xffffffffffffffffffffffffffffffffffffffff\n      and\n      eq\n        /* \"evs.sol\":981:1010  require(msg.sender== manager) */\n      tag_90\n      jumpi\n      0x00\n      dup1\n      revert\n    tag_90:\n        /* \"evs.sol\":2309:2319  candidates */\n      0x00\n        /* \"evs.sol\":2320:2325  index */\n      dup3\n        /* \"evs.sol\":2309:2326  candidates[index] */\n      dup2\n      sload\n      dup2\n      lt\n      tag_92\n      jumpi\n      tag_93\n      tag_52\n      jump\t// in\n    tag_93:\n    tag_92:\n      swap1\n      0x00\n      mstore\n      keccak256(0x00, 0x20)\n      swap1\n      0x05\n      mul\n      add\n        /* \"evs.sol\":2309:2336  candidates[index].voteCount */\n      0x02\n      add\n      sload\n        /* \"evs.sol\":2302:2336  return candidates[index].voteCount */\n      swap1\n      pop\n        /* \"evs.sol\":2171:2340  function getVoteCount(uint index)... */\n      swap2\n      swap1\n      pop\n      jump\t// out\n        /* \"evs.sol\":1783:1973  function getCandidateName(uint index) public restricted view returns (string memory)... */\n    tag_46:\n        /* \"evs.sol\":1853:1866  string memory */\n      0x60\n        /* \"evs.sol\":1002:1009  manager */\n      0x01\n      0x00\n      swap1\n      sload\n      swap1\n      0x0100\n      exp\n      swap1\n      div\n      0xffffffffffffffffffffffffffffffffffffffff\n      and\n        /* \"evs.sol\":989:1009  msg.sender== manager */\n      0xffffffffffffffffffffffffffffffffffffffff\n      and\n        /* \"evs.sol\":989:999  msg.sender */\n      caller\n        /* \"evs.sol\":989:1009  msg.sender== manager */\n      0xffffffffffffffffffffffffffffffffffffffff\n      and\n      eq\n        /* \"evs.sol\":981:1010  require(msg.sender== manager) */\n      tag_96\n      jumpi\n      0x00\n      dup1\n      revert\n    tag_96:\n        /* \"evs.sol\":1900:1910  candidates */\n      0x00\n        /* \"evs.sol\":1911:1916  index */\n      dup3\n        /* \"evs.sol\":1900:1917  candidates[index] */\n      dup2\n      sload\n      dup2\n      lt\n      tag_98\n      jumpi\n      tag_99\n      tag_52\n      jump\t// in\n    tag_99:\n    tag_98:\n      swap1\n      0x00\n      mstore\n      keccak256(0x00, 0x20)\n      swap1\n      0x05\n      mul\n      add\n        /* \"evs.sol\":1900:1932  candidates[index].expirationDate */\n      0x04\n      add\n      sload\n        /* \"evs.sol\":1884:1899  block.timestamp */\n      timestamp\n        /* \"evs.sol\":1884:1932  block.timestamp>candidates[index].expirationDate */\n      gt\n        /* \"evs.sol\":1876:1933  require(block.timestamp>candidates[index].expirationDate) */\n      tag_101\n      jumpi\n      0x00\n      dup1\n      revert\n    tag_101:\n        /* \"evs.sol\":1947:1957  candidates */\n      0x00\n        /* \"evs.sol\":1958:1963  index */\n      dup3\n        /* \"evs.sol\":1947:1964  candidates[index] */\n      dup2\n      sload\n      dup2\n      lt\n      tag_102\n      jumpi\n      tag_103\n      tag_52\n      jump\t// in\n    tag_103:\n    tag_102:\n      swap1\n      0x00\n      mstore\n      keccak256(0x00, 0x20)\n      swap1\n      0x05\n      mul\n      add\n        /* \"evs.sol\":1947:1969  candidates[index].name */\n      0x00\n      add\n        /* \"evs.sol\":1940:1969  return candidates[index].name */\n      dup1\n      sload\n      tag_105\n      swap1\n      tag_59\n      jump\t// in\n    tag_105:\n      dup1\n      0x1f\n      add\n      0x20\n      dup1\n      swap2\n      div\n      mul\n      0x20\n      add\n      mload(0x40)\n      swap1\n      dup2\n      add\n      0x40\n      mstore\n      dup1\n      swap3\n      swap2\n      swap1\n      dup2\n      dup2\n      mstore\n      0x20\n      add\n      dup3\n      dup1\n      sload\n      tag_106\n      swap1\n      tag_59\n      jump\t// in\n    tag_106:\n      dup1\n      iszero\n      tag_107\n      jumpi\n      dup1\n      0x1f\n      lt\n      tag_108\n      jumpi\n      0x0100\n      dup1\n      dup4\n      sload\n      div\n      mul\n      dup4\n      mstore\n      swap2\n      0x20\n      add\n      swap2\n      jump(tag_107)\n    tag_108:\n      dup3\n      add\n      swap2\n      swap1\n      0x00\n      mstore\n      keccak256(0x00, 0x20)\n      swap1\n    tag_109:\n      dup2\n      sload\n      dup2\n      mstore\n      swap1\n      0x01\n      add\n      swap1\n      0x20\n      add\n      dup1\n      dup4\n      gt\n      tag_109\n      jumpi\n      dup3\n      swap1\n      sub\n      0x1f\n      and\n      dup3\n      add\n      swap2\n    tag_107:\n      pop\n      pop\n      pop\n      pop\n      pop\n      swap1\n      pop\n        /* \"evs.sol\":1783:1973  function getCandidateName(uint index) public restricted view returns (string memory)... */\n      swap2\n      swap1\n      pop\n      jump\t// out\n        /* \"#utility.yul\":88:205   */\n    tag_111:\n        /* \"#utility.yul\":197:198   */\n      0x00\n        /* \"#utility.yul\":194:195   */\n      dup1\n        /* \"#utility.yul\":187:199   */\n      revert\n        /* \"#utility.yul\":334:411   */\n    tag_113:\n        /* \"#utility.yul\":371:378   */\n      0x00\n        /* \"#utility.yul\":400:405   */\n      dup2\n        /* \"#utility.yul\":389:405   */\n      swap1\n      pop\n        /* \"#utility.yul\":334:411   */\n      swap2\n      swap1\n      pop\n      jump\t// out\n        /* \"#utility.yul\":417:539   */\n    tag_114:\n        /* \"#utility.yul\":490:514   */\n      tag_137\n        /* \"#utility.yul\":508:513   */\n      dup2\n        /* \"#utility.yul\":490:514   */\n      tag_113\n      jump\t// in\n    tag_137:\n        /* \"#utility.yul\":483:488   */\n      dup2\n        /* \"#utility.yul\":480:515   */\n      eq\n        /* \"#utility.yul\":470:533   */\n      tag_138\n      jumpi\n        /* \"#utility.yul\":529:530   */\n      0x00\n        /* \"#utility.yul\":526:527   */\n      dup1\n        /* \"#utility.yul\":519:531   */\n      revert\n        /* \"#utility.yul\":470:533   */\n    tag_138:\n        /* \"#utility.yul\":417:539   */\n      pop\n      jump\t// out\n        /* \"#utility.yul\":545:684   */\n    tag_115:\n        /* \"#utility.yul\":591:596   */\n      0x00\n        /* \"#utility.yul\":629:635   */\n      dup2\n        /* \"#utility.yul\":616:636   */\n      calldataload\n        /* \"#utility.yul\":607:636   */\n      swap1\n      pop\n        /* \"#utility.yul\":645:678   */\n      tag_140\n        /* \"#utility.yul\":672:677   */\n      dup2\n        /* \"#utility.yul\":645:678   */\n      tag_114\n      jump\t// in\n    tag_140:\n        /* \"#utility.yul\":545:684   */\n      swap3\n      swap2\n      pop\n      pop\n      jump\t// out\n        /* \"#utility.yul\":690:1019   */\n    tag_14:\n        /* \"#utility.yul\":749:755   */\n      0x00\n        /* \"#utility.yul\":798:800   */\n      0x20\n        /* \"#utility.yul\":786:795   */\n      dup3\n        /* \"#utility.yul\":777:784   */\n      dup5\n        /* \"#utility.yul\":773:796   */\n      sub\n        /* \"#utility.yul\":769:801   */\n      slt\n        /* \"#utility.yul\":766:885   */\n      iszero\n      tag_142\n      jumpi\n        /* \"#utility.yul\":804:883   */\n      tag_143\n      tag_111\n      jump\t// in\n    tag_143:\n        /* \"#utility.yul\":766:885   */\n    tag_142:\n        /* \"#utility.yul\":924:925   */\n      0x00\n        /* \"#utility.yul\":949:1002   */\n      tag_144\n        /* \"#utility.yul\":994:1001   */\n      dup5\n        /* \"#utility.yul\":985:991   */\n      dup3\n        /* \"#utility.yul\":974:983   */\n      dup6\n        /* \"#utility.yul\":970:992   */\n      add\n        /* \"#utility.yul\":949:1002   */\n      tag_115\n      jump\t// in\n    tag_144:\n        /* \"#utility.yul\":939:1002   */\n      swap2\n      pop\n        /* \"#utility.yul\":895:1012   */\n      pop\n        /* \"#utility.yul\":690:1019   */\n      swap3\n      swap2\n      pop\n      pop\n      jump\t// out\n        /* \"#utility.yul\":1025:1124   */\n    tag_116:\n        /* \"#utility.yul\":1077:1083   */\n      0x00\n        /* \"#utility.yul\":1111:1116   */\n      dup2\n        /* \"#utility.yul\":1105:1117   */\n      mload\n        /* \"#utility.yul\":1095:1117   */\n      swap1\n      pop\n        /* \"#utility.yul\":1025:1124   */\n      swap2\n      swap1\n      pop\n      jump\t// out\n        /* \"#utility.yul\":1130:1299   */\n    tag_117:\n        /* \"#utility.yul\":1214:1225   */\n      0x00\n        /* \"#utility.yul\":1248:1254   */\n      dup3\n        /* \"#utility.yul\":1243:1246   */\n      dup3\n        /* \"#utility.yul\":1236:1255   */\n      mstore\n        /* \"#utility.yul\":1288:1292   */\n      0x20\n        /* \"#utility.yul\":1283:1286   */\n      dup3\n        /* \"#utility.yul\":1279:1293   */\n      add\n        /* \"#utility.yul\":1264:1293   */\n      swap1\n      pop\n        /* \"#utility.yul\":1130:1299   */\n      swap3\n      swap2\n      pop\n      pop\n      jump\t// out\n        /* \"#utility.yul\":1305:1551   */\n    tag_118:\n        /* \"#utility.yul\":1386:1387   */\n      0x00\n        /* \"#utility.yul\":1396:1509   */\n    tag_148:\n        /* \"#utility.yul\":1410:1416   */\n      dup4\n        /* \"#utility.yul\":1407:1408   */\n      dup2\n        /* \"#utility.yul\":1404:1417   */\n      lt\n        /* \"#utility.yul\":1396:1509   */\n      iszero\n      tag_150\n      jumpi\n        /* \"#utility.yul\":1495:1496   */\n      dup1\n        /* \"#utility.yul\":1490:1493   */\n      dup3\n        /* \"#utility.yul\":1486:1497   */\n      add\n        /* \"#utility.yul\":1480:1498   */\n      mload\n        /* \"#utility.yul\":1476:1477   */\n      dup2\n        /* \"#utility.yul\":1471:1474   */\n      dup5\n        /* \"#utility.yul\":1467:1478   */\n      add\n        /* \"#utility.yul\":1460:1499   */\n      mstore\n        /* \"#utility.yul\":1432:1434   */\n      0x20\n        /* \"#utility.yul\":1429:1430   */\n      dup2\n        /* \"#utility.yul\":1425:1435   */\n      add\n        /* \"#utility.yul\":1420:1435   */\n      swap1\n      pop\n        /* \"#utility.yul\":1396:1509   */\n      jump(tag_148)\n    tag_150:\n        /* \"#utility.yul\":1543:1544   */\n      0x00\n        /* \"#utility.yul\":1534:1540   */\n      dup5\n        /* \"#utility.yul\":1529:1532   */\n      dup5\n        /* \"#utility.yul\":1525:1541   */\n      add\n        /* \"#utility.yul\":1518:1545   */\n      mstore\n        /* \"#utility.yul\":1367:1551   */\n      pop\n        /* \"#utility.yul\":1305:1551   */\n      pop\n      pop\n      pop\n      jump\t// out\n        /* \"#utility.yul\":1557:1659   */\n    tag_119:\n        /* \"#utility.yul\":1598:1604   */\n      0x00\n        /* \"#utility.yul\":1649:1651   */\n      0x1f\n        /* \"#utility.yul\":1645:1652   */\n      not\n        /* \"#utility.yul\":1640:1642   */\n      0x1f\n        /* \"#utility.yul\":1633:1638   */\n      dup4\n        /* \"#utility.yul\":1629:1643   */\n      add\n        /* \"#utility.yul\":1625:1653   */\n      and\n        /* \"#utility.yul\":1615:1653   */\n      swap1\n      pop\n        /* \"#utility.yul\":1557:1659   */\n      swap2\n      swap1\n      pop\n      jump\t// out\n        /* \"#utility.yul\":1665:2042   */\n    tag_120:\n        /* \"#utility.yul\":1753:1756   */\n      0x00\n        /* \"#utility.yul\":1781:1820   */\n      tag_153\n        /* \"#utility.yul\":1814:1819   */\n      dup3\n        /* \"#utility.yul\":1781:1820   */\n      tag_116\n      jump\t// in\n    tag_153:\n        /* \"#utility.yul\":1836:1907   */\n      tag_154\n        /* \"#utility.yul\":1900:1906   */\n      dup2\n        /* \"#utility.yul\":1895:1898   */\n      dup6\n        /* \"#utility.yul\":1836:1907   */\n      tag_117\n      jump\t// in\n    tag_154:\n        /* \"#utility.yul\":1829:1907   */\n      swap4\n      pop\n        /* \"#utility.yul\":1916:1981   */\n      tag_155\n        /* \"#utility.yul\":1974:1980   */\n      dup2\n        /* \"#utility.yul\":1969:1972   */\n      dup6\n        /* \"#utility.yul\":1962:1966   */\n      0x20\n        /* \"#utility.yul\":1955:1960   */\n      dup7\n        /* \"#utility.yul\":1951:1967   */\n      add\n        /* \"#utility.yul\":1916:1981   */\n      tag_118\n      jump\t// in\n    tag_155:\n        /* \"#utility.yul\":2006:2035   */\n      tag_156\n        /* \"#utility.yul\":2028:2034   */\n      dup2\n        /* \"#utility.yul\":2006:2035   */\n      tag_119\n      jump\t// in\n    tag_156:\n        /* \"#utility.yul\":2001:2004   */\n      dup5\n        /* \"#utility.yul\":1997:2036   */\n      add\n        /* \"#utility.yul\":1990:2036   */\n      swap2\n      pop\n        /* \"#utility.yul\":1757:2042   */\n      pop\n        /* \"#utility.yul\":1665:2042   */\n      swap3\n      swap2\n      pop\n      pop\n      jump\t// out\n        /* \"#utility.yul\":2048:2166   */\n    tag_121:\n        /* \"#utility.yul\":2135:2159   */\n      tag_158\n        /* \"#utility.yul\":2153:2158   */\n      dup2\n        /* \"#utility.yul\":2135:2159   */\n      tag_113\n      jump\t// in\n    tag_158:\n        /* \"#utility.yul\":2130:2133   */\n      dup3\n        /* \"#utility.yul\":2123:2160   */\n      mstore\n        /* \"#utility.yul\":2048:2166   */\n      pop\n      pop\n      jump\t// out\n        /* \"#utility.yul\":2172:3018   */\n    tag_20:\n        /* \"#utility.yul\":2417:2421   */\n      0x00\n        /* \"#utility.yul\":2455:2458   */\n      0xa0\n        /* \"#utility.yul\":2444:2453   */\n      dup3\n        /* \"#utility.yul\":2440:2459   */\n      add\n        /* \"#utility.yul\":2432:2459   */\n      swap1\n      pop\n        /* \"#utility.yul\":2505:2514   */\n      dup2\n        /* \"#utility.yul\":2499:2503   */\n      dup2\n        /* \"#utility.yul\":2495:2515   */\n      sub\n        /* \"#utility.yul\":2491:2492   */\n      0x00\n        /* \"#utility.yul\":2480:2489   */\n      dup4\n        /* \"#utility.yul\":2476:2493   */\n      add\n        /* \"#utility.yul\":2469:2516   */\n      mstore\n        /* \"#utility.yul\":2533:2611   */\n      tag_160\n        /* \"#utility.yul\":2606:2610   */\n      dup2\n        /* \"#utility.yul\":2597:2603   */\n      dup9\n        /* \"#utility.yul\":2533:2611   */\n      tag_120\n      jump\t// in\n    tag_160:\n        /* \"#utility.yul\":2525:2611   */\n      swap1\n      pop\n        /* \"#utility.yul\":2658:2667   */\n      dup2\n        /* \"#utility.yul\":2652:2656   */\n      dup2\n        /* \"#utility.yul\":2648:2668   */\n      sub\n        /* \"#utility.yul\":2643:2645   */\n      0x20\n        /* \"#utility.yul\":2632:2641   */\n      dup4\n        /* \"#utility.yul\":2628:2646   */\n      add\n        /* \"#utility.yul\":2621:2669   */\n      mstore\n        /* \"#utility.yul\":2686:2764   */\n      tag_161\n        /* \"#utility.yul\":2759:2763   */\n      dup2\n        /* \"#utility.yul\":2750:2756   */\n      dup8\n        /* \"#utility.yul\":2686:2764   */\n      tag_120\n      jump\t// in\n    tag_161:\n        /* \"#utility.yul\":2678:2764   */\n      swap1\n      pop\n        /* \"#utility.yul\":2774:2846   */\n      tag_162\n        /* \"#utility.yul\":2842:2844   */\n      0x40\n        /* \"#utility.yul\":2831:2840   */\n      dup4\n        /* \"#utility.yul\":2827:2845   */\n      add\n        /* \"#utility.yul\":2818:2824   */\n      dup7\n        /* \"#utility.yul\":2774:2846   */\n      tag_121\n      jump\t// in\n    tag_162:\n        /* \"#utility.yul\":2856:2928   */\n      tag_163\n        /* \"#utility.yul\":2924:2926   */\n      0x60\n        /* \"#utility.yul\":2913:2922   */\n      dup4\n        /* \"#utility.yul\":2909:2927   */\n      add\n        /* \"#utility.yul\":2900:2906   */\n      dup6\n        /* \"#utility.yul\":2856:2928   */\n      tag_121\n      jump\t// in\n    tag_163:\n        /* \"#utility.yul\":2938:3011   */\n      tag_164\n        /* \"#utility.yul\":3006:3009   */\n      0x80\n        /* \"#utility.yul\":2995:3004   */\n      dup4\n        /* \"#utility.yul\":2991:3010   */\n      add\n        /* \"#utility.yul\":2982:2988   */\n      dup5\n        /* \"#utility.yul\":2938:3011   */\n      tag_121\n      jump\t// in\n    tag_164:\n        /* \"#utility.yul\":2172:3018   */\n      swap7\n      swap6\n      pop\n      pop\n      pop\n      pop\n      pop\n      pop\n      jump\t// out\n        /* \"#utility.yul\":3024:3337   */\n    tag_25:\n        /* \"#utility.yul\":3137:3141   */\n      0x00\n        /* \"#utility.yul\":3175:3177   */\n      0x20\n        /* \"#utility.yul\":3164:3173   */\n      dup3\n        /* \"#utility.yul\":3160:3178   */\n      add\n        /* \"#utility.yul\":3152:3178   */\n      swap1\n      pop\n        /* \"#utility.yul\":3224:3233   */\n      dup2\n        /* \"#utility.yul\":3218:3222   */\n      dup2\n        /* \"#utility.yul\":3214:3234   */\n      sub\n        /* \"#utility.yul\":3210:3211   */\n      0x00\n        /* \"#utility.yul\":3199:3208   */\n      dup4\n        /* \"#utility.yul\":3195:3212   */\n      add\n        /* \"#utility.yul\":3188:3235   */\n      mstore\n        /* \"#utility.yul\":3252:3330   */\n      tag_166\n        /* \"#utility.yul\":3325:3329   */\n      dup2\n        /* \"#utility.yul\":3316:3322   */\n      dup5\n        /* \"#utility.yul\":3252:3330   */\n      tag_120\n      jump\t// in\n    tag_166:\n        /* \"#utility.yul\":3244:3330   */\n      swap1\n      pop\n        /* \"#utility.yul\":3024:3337   */\n      swap3\n      swap2\n      pop\n      pop\n      jump\t// out\n        /* \"#utility.yul\":3343:3469   */\n    tag_122:\n        /* \"#utility.yul\":3380:3387   */\n      0x00\n        /* \"#utility.yul\":3420:3462   */\n      0xffffffffffffffffffffffffffffffffffffffff\n        /* \"#utility.yul\":3413:3418   */\n      dup3\n        /* \"#utility.yul\":3409:3463   */\n      and\n        /* \"#utility.yul\":3398:3463   */\n      swap1\n      pop\n        /* \"#utility.yul\":3343:3469   */\n      swap2\n      swap1\n      pop\n      jump\t// out\n        /* \"#utility.yul\":3475:3571   */\n    tag_123:\n        /* \"#utility.yul\":3512:3519   */\n      0x00\n        /* \"#utility.yul\":3541:3565   */\n      tag_169\n        /* \"#utility.yul\":3559:3564   */\n      dup3\n        /* \"#utility.yul\":3541:3565   */\n      tag_122\n      jump\t// in\n    tag_169:\n        /* \"#utility.yul\":3530:3565   */\n      swap1\n      pop\n        /* \"#utility.yul\":3475:3571   */\n      swap2\n      swap1\n      pop\n      jump\t// out\n        /* \"#utility.yul\":3577:3695   */\n    tag_124:\n        /* \"#utility.yul\":3664:3688   */\n      tag_171\n        /* \"#utility.yul\":3682:3687   */\n      dup2\n        /* \"#utility.yul\":3664:3688   */\n      tag_123\n      jump\t// in\n    tag_171:\n        /* \"#utility.yul\":3659:3662   */\n      dup3\n        /* \"#utility.yul\":3652:3689   */\n      mstore\n        /* \"#utility.yul\":3577:3695   */\n      pop\n      pop\n      jump\t// out\n        /* \"#utility.yul\":3701:3923   */\n    tag_29:\n        /* \"#utility.yul\":3794:3798   */\n      0x00\n        /* \"#utility.yul\":3832:3834   */\n      0x20\n        /* \"#utility.yul\":3821:3830   */\n      dup3\n        /* \"#utility.yul\":3817:3835   */\n      add\n        /* \"#utility.yul\":3809:3835   */\n      swap1\n      pop\n        /* \"#utility.yul\":3845:3916   */\n      tag_173\n        /* \"#utility.yul\":3913:3914   */\n      0x00\n        /* \"#utility.yul\":3902:3911   */\n      dup4\n        /* \"#utility.yul\":3898:3915   */\n      add\n        /* \"#utility.yul\":3889:3895   */\n      dup5\n        /* \"#utility.yul\":3845:3916   */\n      tag_124\n      jump\t// in\n    tag_173:\n        /* \"#utility.yul\":3701:3923   */\n      swap3\n      swap2\n      pop\n      pop\n      jump\t// out\n        /* \"#utility.yul\":3929:4051   */\n    tag_125:\n        /* \"#utility.yul\":4002:4026   */\n      tag_175\n        /* \"#utility.yul\":4020:4025   */\n      dup2\n        /* \"#utility.yul\":4002:4026   */\n      tag_123\n      jump\t// in\n    tag_175:\n        /* \"#utility.yul\":3995:4000   */\n      dup2\n        /* \"#utility.yul\":3992:4027   */\n      eq\n        /* \"#utility.yul\":3982:4045   */\n      tag_176\n      jumpi\n        /* \"#utility.yul\":4041:4042   */\n      0x00\n        /* \"#utility.yul\":4038:4039   */\n      dup1\n        /* \"#utility.yul\":4031:4043   */\n      revert\n        /* \"#utility.yul\":3982:4045   */\n    tag_176:\n        /* \"#utility.yul\":3929:4051   */\n      pop\n      jump\t// out\n        /* \"#utility.yul\":4057:4196   */\n    tag_126:\n        /* \"#utility.yul\":4103:4108   */\n      0x00\n        /* \"#utility.yul\":4141:4147   */\n      dup2\n        /* \"#utility.yul\":4128:4148   */\n      calldataload\n        /* \"#utility.yul\":4119:4148   */\n      swap1\n      pop\n        /* \"#utility.yul\":4157:4190   */\n      tag_178\n        /* \"#utility.yul\":4184:4189   */\n      dup2\n        /* \"#utility.yul\":4157:4190   */\n      tag_125\n      jump\t// in\n    tag_178:\n        /* \"#utility.yul\":4057:4196   */\n      swap3\n      swap2\n      pop\n      pop\n      jump\t// out\n        /* \"#utility.yul\":4202:4531   */\n    tag_35:\n        /* \"#utility.yul\":4261:4267   */\n      0x00\n        /* \"#utility.yul\":4310:4312   */\n      0x20\n        /* \"#utility.yul\":4298:4307   */\n      dup3\n        /* \"#utility.yul\":4289:4296   */\n      dup5\n        /* \"#utility.yul\":4285:4308   */\n      sub\n        /* \"#utility.yul\":4281:4313   */\n      slt\n        /* \"#utility.yul\":4278:4397   */\n      iszero\n      tag_180\n      jumpi\n        /* \"#utility.yul\":4316:4395   */\n      tag_181\n      tag_111\n      jump\t// in\n    tag_181:\n        /* \"#utility.yul\":4278:4397   */\n    tag_180:\n        /* \"#utility.yul\":4436:4437   */\n      0x00\n        /* \"#utility.yul\":4461:4514   */\n      tag_182\n        /* \"#utility.yul\":4506:4513   */\n      dup5\n        /* \"#utility.yul\":4497:4503   */\n      dup3\n        /* \"#utility.yul\":4486:4495   */\n      dup6\n        /* \"#utility.yul\":4482:4504   */\n      add\n        /* \"#utility.yul\":4461:4514   */\n      tag_126\n      jump\t// in\n    tag_182:\n        /* \"#utility.yul\":4451:4514   */\n      swap2\n      pop\n        /* \"#utility.yul\":4407:4524   */\n      pop\n        /* \"#utility.yul\":4202:4531   */\n      swap3\n      swap2\n      pop\n      pop\n      jump\t// out\n        /* \"#utility.yul\":4537:4627   */\n    tag_127:\n        /* \"#utility.yul\":4571:4578   */\n      0x00\n        /* \"#utility.yul\":4614:4619   */\n      dup2\n        /* \"#utility.yul\":4607:4620   */\n      iszero\n        /* \"#utility.yul\":4600:4621   */\n      iszero\n        /* \"#utility.yul\":4589:4621   */\n      swap1\n      pop\n        /* \"#utility.yul\":4537:4627   */\n      swap2\n      swap1\n      pop\n      jump\t// out\n        /* \"#utility.yul\":4633:4742   */\n    tag_128:\n        /* \"#utility.yul\":4714:4735   */\n      tag_185\n        /* \"#utility.yul\":4729:4734   */\n      dup2\n        /* \"#utility.yul\":4714:4735   */\n      tag_127\n      jump\t// in\n    tag_185:\n        /* \"#utility.yul\":4709:4712   */\n      dup3\n        /* \"#utility.yul\":4702:4736   */\n      mstore\n        /* \"#utility.yul\":4633:4742   */\n      pop\n      pop\n      jump\t// out\n        /* \"#utility.yul\":4748:4958   */\n    tag_38:\n        /* \"#utility.yul\":4835:4839   */\n      0x00\n        /* \"#utility.yul\":4873:4875   */\n      0x20\n        /* \"#utility.yul\":4862:4871   */\n      dup3\n        /* \"#utility.yul\":4858:4876   */\n      add\n        /* \"#utility.yul\":4850:4876   */\n      swap1\n      pop\n        /* \"#utility.yul\":4886:4951   */\n      tag_187\n        /* \"#utility.yul\":4948:4949   */\n      0x00\n        /* \"#utility.yul\":4937:4946   */\n      dup4\n        /* \"#utility.yul\":4933:4950   */\n      add\n        /* \"#utility.yul\":4924:4930   */\n      dup5\n        /* \"#utility.yul\":4886:4951   */\n      tag_128\n      jump\t// in\n    tag_187:\n        /* \"#utility.yul\":4748:4958   */\n      swap3\n      swap2\n      pop\n      pop\n      jump\t// out\n        /* \"#utility.yul\":4964:5186   */\n    tag_43:\n        /* \"#utility.yul\":5057:5061   */\n      0x00\n        /* \"#utility.yul\":5095:5097   */\n      0x20\n        /* \"#utility.yul\":5084:5093   */\n      dup3\n        /* \"#utility.yul\":5080:5098   */\n      add\n        /* \"#utility.yul\":5072:5098   */\n      swap1\n      pop\n        /* \"#utility.yul\":5108:5179   */\n      tag_189\n        /* \"#utility.yul\":5176:5177   */\n      0x00\n        /* \"#utility.yul\":5165:5174   */\n      dup4\n        /* \"#utility.yul\":5161:5178   */\n      add\n        /* \"#utility.yul\":5152:5158   */\n      dup5\n        /* \"#utility.yul\":5108:5179   */\n      tag_121\n      jump\t// in\n    tag_189:\n        /* \"#utility.yul\":4964:5186   */\n      swap3\n      swap2\n      pop\n      pop\n      jump\t// out\n        /* \"#utility.yul\":5192:5372   */\n    tag_52:\n        /* \"#utility.yul\":5240:5317   */\n      0x4e487b7100000000000000000000000000000000000000000000000000000000\n        /* \"#utility.yul\":5237:5238   */\n      0x00\n        /* \"#utility.yul\":5230:5318   */\n      mstore\n        /* \"#utility.yul\":5337:5341   */\n      0x32\n        /* \"#utility.yul\":5334:5335   */\n      0x04\n        /* \"#utility.yul\":5327:5342   */\n      mstore\n        /* \"#utility.yul\":5361:5365   */\n      0x24\n        /* \"#utility.yul\":5358:5359   */\n      0x00\n        /* \"#utility.yul\":5351:5366   */\n      revert\n        /* \"#utility.yul\":5378:5558   */\n    tag_129:\n        /* \"#utility.yul\":5426:5503   */\n      0x4e487b7100000000000000000000000000000000000000000000000000000000\n        /* \"#utility.yul\":5423:5424   */\n      0x00\n        /* \"#utility.yul\":5416:5504   */\n      mstore\n        /* \"#utility.yul\":5523:5527   */\n      0x11\n        /* \"#utility.yul\":5520:5521   */\n      0x04\n        /* \"#utility.yul\":5513:5528   */\n      mstore\n        /* \"#utility.yul\":5547:5551   */\n      0x24\n        /* \"#utility.yul\":5544:5545   */\n      0x00\n        /* \"#utility.yul\":5537:5552   */\n      revert\n        /* \"#utility.yul\":5564:5755   */\n    tag_55:\n        /* \"#utility.yul\":5604:5607   */\n      0x00\n        /* \"#utility.yul\":5623:5643   */\n      tag_193\n        /* \"#utility.yul\":5641:5642   */\n      dup3\n        /* \"#utility.yul\":5623:5643   */\n      tag_113\n      jump\t// in\n    tag_193:\n        /* \"#utility.yul\":5618:5643   */\n      swap2\n      pop\n        /* \"#utility.yul\":5657:5677   */\n      tag_194\n        /* \"#utility.yul\":5675:5676   */\n      dup4\n        /* \"#utility.yul\":5657:5677   */\n      tag_113\n      jump\t// in\n    tag_194:\n        /* \"#utility.yul\":5652:5677   */\n      swap3\n      pop\n        /* \"#utility.yul\":5700:5701   */\n      dup3\n        /* \"#utility.yul\":5697:5698   */\n      dup3\n        /* \"#utility.yul\":5693:5702   */\n      add\n        /* \"#utility.yul\":5686:5702   */\n      swap1\n      pop\n        /* \"#utility.yul\":5721:5724   */\n      dup1\n        /* \"#utility.yul\":5718:5719   */\n      dup3\n        /* \"#utility.yul\":5715:5725   */\n      gt\n        /* \"#utility.yul\":5712:5748   */\n      iszero\n      tag_195\n      jumpi\n        /* \"#utility.yul\":5728:5746   */\n      tag_196\n      tag_129\n      jump\t// in\n    tag_196:\n        /* \"#utility.yul\":5712:5748   */\n    tag_195:\n        /* \"#utility.yul\":5564:5755   */\n      swap3\n      swap2\n      pop\n      pop\n      jump\t// out\n        /* \"#utility.yul\":5761:5941   */\n    tag_130:\n        /* \"#utility.yul\":5809:5886   */\n      0x4e487b7100000000000000000000000000000000000000000000000000000000\n        /* \"#utility.yul\":5806:5807   */\n      0x00\n        /* \"#utility.yul\":5799:5887   */\n      mstore\n        /* \"#utility.yul\":5906:5910   */\n      0x22\n        /* \"#utility.yul\":5903:5904   */\n      0x04\n        /* \"#utility.yul\":5896:5911   */\n      mstore\n        /* \"#utility.yul\":5930:5934   */\n      0x24\n        /* \"#utility.yul\":5927:5928   */\n      0x00\n        /* \"#utility.yul\":5920:5935   */\n      revert\n        /* \"#utility.yul\":5947:6267   */\n    tag_59:\n        /* \"#utility.yul\":5991:5997   */\n      0x00\n        /* \"#utility.yul\":6028:6029   */\n      0x02\n        /* \"#utility.yul\":6022:6026   */\n      dup3\n        /* \"#utility.yul\":6018:6030   */\n      div\n        /* \"#utility.yul\":6008:6030   */\n      swap1\n      pop\n        /* \"#utility.yul\":6075:6076   */\n      0x01\n        /* \"#utility.yul\":6069:6073   */\n      dup3\n        /* \"#utility.yul\":6065:6077   */\n      and\n        /* \"#utility.yul\":6096:6114   */\n      dup1\n        /* \"#utility.yul\":6086:6167   */\n      tag_199\n      jumpi\n        /* \"#utility.yul\":6152:6156   */\n      0x7f\n        /* \"#utility.yul\":6144:6150   */\n      dup3\n        /* \"#utility.yul\":6140:6157   */\n      and\n        /* \"#utility.yul\":6130:6157   */\n      swap2\n      pop\n        /* \"#utility.yul\":6086:6167   */\n    tag_199:\n        /* \"#utility.yul\":6214:6216   */\n      0x20\n        /* \"#utility.yul\":6206:6212   */\n      dup3\n        /* \"#utility.yul\":6203:6217   */\n      lt\n        /* \"#utility.yul\":6183:6201   */\n      dup2\n        /* \"#utility.yul\":6180:6218   */\n      sub\n        /* \"#utility.yul\":6177:6261   */\n      tag_200\n      jumpi\n        /* \"#utility.yul\":6233:6251   */\n      tag_201\n      tag_130\n      jump\t// in\n    tag_201:\n        /* \"#utility.yul\":6177:6261   */\n    tag_200:\n        /* \"#utility.yul\":5998:6267   */\n      pop\n        /* \"#utility.yul\":5947:6267   */\n      swap2\n      swap1\n      pop\n      jump\t// out\n\n    auxdata: 0xa26469706673582212202cc423632b6321c230b388a548b067ab80cc64046b70e4cc974f81b02ceacb1a64736f6c63430008180033\n}\n","bytecode":{"linkReferences":{},"object":"608060405234801562000010575f80fd5b5060405162001493380380620014938339818101604052810190620000369190620004a7565b8160015f6101000a81548173ffffffffffffffffffffffffffffffffffffffff021916908373ffffffffffffffffffffffffffffffffffffffff1602179055508260029081620000879190620007b6565b505f5b855181101562000185575f6040518060a00160405280888481518110620000b657620000b56200089a565b5b60200260200101518152602001878481518110620000d957620000d86200089a565b5b602002602001015181526020015f81526020014281526020018442620001009190620008f4565b815250908060018154018082558091505060019003905f5260205f2090600502015f909190919091505f820151815f0190816200013e9190620007b6565b506020820151816001019081620001569190620007b6565b50604082015181600201556060820151816003015560808201518160040155505080806001019150506200008a565b5050505050506200092e565b5f604051905090565b5f80fd5b5f80fd5b5f80fd5b5f601f19601f8301169050919050565b7f4e487b71000000000000000000000000000000000000000000000000000000005f52604160045260245ffd5b620001ee82620001a6565b810181811067ffffffffffffffff8211171562000210576200020f620001b6565b5b80604052505050565b5f6200022462000191565b9050620002328282620001e3565b919050565b5f67ffffffffffffffff821115620002545762000253620001b6565b5b602082029050602081019050919050565b5f80fd5b5f80fd5b5f67ffffffffffffffff8211156200028a5762000289620001b6565b5b6200029582620001a6565b9050602081019050919050565b5f5b83811015620002c1578082015181840152602081019050620002a4565b5f8484015250505050565b5f620002e2620002dc846200026d565b62000219565b90508281526020810184848401111562000301576200030062000269565b5b6200030e848285620002a2565b509392505050565b5f82601f8301126200032d576200032c620001a2565b5b81516200033f848260208601620002cc565b91505092915050565b5f6200035e620003588462000237565b62000219565b9050808382526020820190506020840283018581111562000384576200038362000265565b5b835b81811015620003d257805167ffffffffffffffff811115620003ad57620003ac620001a2565b5b808601620003bc898262000316565b8552602085019450505060208101905062000386565b5050509392505050565b5f82601f830112620003f357620003f2620001a2565b5b81516200040584826020860162000348565b91505092915050565b5f73ffffffffffffffffffffffffffffffffffffffff82169050919050565b5f62000439826200040e565b9050919050565b6200044b816200042d565b811462000456575f80fd5b50565b5f81519050620004698162000440565b92915050565b5f819050919050565b62000483816200046f565b81146200048e575f80fd5b50565b5f81519050620004a18162000478565b92915050565b5f805f805f60a08688031215620004c357620004c26200019a565b5b5f86015167ffffffffffffffff811115620004e357620004e26200019e565b5b620004f188828901620003dc565b955050602086015167ffffffffffffffff8111156200051557620005146200019e565b5b6200052388828901620003dc565b945050604086015167ffffffffffffffff8111156200054757620005466200019e565b5b620005558882890162000316565b9350506060620005688882890162000459565b92505060806200057b8882890162000491565b9150509295509295909350565b5f81519050919050565b7f4e487b71000000000000000000000000000000000000000000000000000000005f52602260045260245ffd5b5f6002820490506001821680620005d757607f821691505b602082108103620005ed57620005ec62000592565b5b50919050565b5f819050815f5260205f209050919050565b5f6020601f8301049050919050565b5f82821b905092915050565b5f60088302620006517fffffffffffffffffffffffffffffffffffffffffffffffffffffffffffffffff8262000614565b6200065d868362000614565b95508019841693508086168417925050509392505050565b5f819050919050565b5f6200069e6200069862000692846200046f565b62000675565b6200046f565b9050919050565b5f819050919050565b620006b9836200067e565b620006d1620006c882620006a5565b84845462000620565b825550505050565b5f90565b620006e7620006d9565b620006f4818484620006ae565b505050565b5b818110156200071b576200070f5f82620006dd565b600181019050620006fa565b5050565b601f8211156200076a576200073481620005f3565b6200073f8462000605565b810160208510156200074f578190505b620007676200075e8562000605565b830182620006f9565b50505b505050565b5f82821c905092915050565b5f6200078c5f19846008026200076f565b1980831691505092915050565b5f620007a683836200077b565b9150826002028217905092915050565b620007c18262000588565b67ffffffffffffffff811115620007dd57620007dc620001b6565b5b620007e98254620005bf565b620007f68282856200071f565b5f60209050601f8311600181146200082c575f841562000817578287015190505b62000823858262000799565b86555062000892565b601f1984166200083c86620005f3565b5f5b8281101562000865578489015182556001820191506020850194506020810190506200083e565b8683101562000885578489015162000881601f8916826200077b565b8355505b6001600288020188555050505b505050505050565b7f4e487b71000000000000000000000000000000000000000000000000000000005f52603260045260245ffd5b7f4e487b71000000000000000000000000000000000000000000000000000000005f52601160045260245ffd5b5f62000900826200046f565b91506200090d836200046f565b9250828201905080821115620009285762000927620008c7565b5b92915050565b610b57806200093c5f395ff3fe608060405234801561000f575f80fd5b5060043610610086575f3560e01c8063716c424e11610059578063716c424e14610128578063a3ec138d14610146578063b2c2f2e814610176578063e13804a7146101a657610086565b80630121b93f1461008a5780633477ee2e146100a6578063456645a7146100da578063481c6a751461010a575b5f80fd5b6100a4600480360381019061009f91906107fb565b6101d6565b005b6100c060048036038101906100bb91906107fb565b6102ba565b6040516100d19594939291906108bf565b60405180910390f35b6100f460048036038101906100ef91906107fb565b610406565b604051610101919061091e565b60405180910390f35b61011261053d565b60405161011f919061097d565b60405180910390f35b610130610562565b60405161013d919061091e565b60405180910390f35b610160600480360381019061015b91906109c0565b6105ee565b60405161016d9190610a05565b60405180910390f35b610190600480360381019061018b91906107fb565b61060b565b60405161019d9190610a1e565b60405180910390f35b6101c060048036038101906101bb91906107fb565b61068e565b6040516101cd919061091e565b60405180910390f35b60035f3373ffffffffffffffffffffffffffffffffffffffff1673ffffffffffffffffffffffffffffffffffffffff1681526020019081526020015f205f9054906101000a900460ff1615610229575f80fd5b60015f828154811061023e5761023d610a37565b5b905f5260205f2090600502016002015f82825461025b9190610a91565b92505081905550600160035f3373ffffffffffffffffffffffffffffffffffffffff1673ffffffffffffffffffffffffffffffffffffffff1681526020019081526020015f205f6101000a81548160ff02191690831515021790555050565b5f81815481106102c8575f80fd5b905f5260205f2090600502015f91509050805f0180546102e790610af1565b80601f016020809104026020016040519081016040528092919081815260200182805461031390610af1565b801561035e5780601f106103355761010080835404028352916020019161035e565b820191905f5260205f20905b81548152906001019060200180831161034157829003601f168201915b50505050509080600101805461037390610af1565b80601f016020809104026020016040519081016040528092919081815260200182805461039f90610af1565b80156103ea5780601f106103c1576101008083540402835291602001916103ea565b820191905f5260205f20905b8154815290600101906020018083116103cd57829003601f168201915b5050505050908060020154908060030154908060040154905085565b606060015f9054906101000a900473ffffffffffffffffffffffffffffffffffffffff1673ffffffffffffffffffffffffffffffffffffffff163373ffffffffffffffffffffffffffffffffffffffff1614610460575f80fd5b5f828154811061047357610472610a37565b5b905f5260205f20906005020160040154421161048d575f80fd5b5f82815481106104a05761049f610a37565b5b905f5260205f20906005020160010180546104ba90610af1565b80601f01602080910402602001604051908101604052809291908181526020018280546104e690610af1565b80156105315780601f1061050857610100808354040283529160200191610531565b820191905f5260205f20905b81548152906001019060200180831161051457829003601f168201915b50505050509050919050565b60015f9054906101000a900473ffffffffffffffffffffffffffffffffffffffff1681565b6002805461056f90610af1565b80601f016020809104026020016040519081016040528092919081815260200182805461059b90610af1565b80156105e65780601f106105bd576101008083540402835291602001916105e6565b820191905f5260205f20905b8154815290600101906020018083116105c957829003601f168201915b505050505081565b6003602052805f5260405f205f915054906101000a900460ff1681565b5f60015f9054906101000a900473ffffffffffffffffffffffffffffffffffffffff1673ffffffffffffffffffffffffffffffffffffffff163373ffffffffffffffffffffffffffffffffffffffff1614610664575f80fd5b5f828154811061067757610676610a37565b5b905f5260205f209060050201600201549050919050565b606060015f9054906101000a900473ffffffffffffffffffffffffffffffffffffffff1673ffffffffffffffffffffffffffffffffffffffff163373ffffffffffffffffffffffffffffffffffffffff16146106e8575f80fd5b5f82815481106106fb576106fa610a37565b5b905f5260205f209060050201600401544211610715575f80fd5b5f828154811061072857610727610a37565b5b905f5260205f2090600502015f01805461074190610af1565b80601f016020809104026020016040519081016040528092919081815260200182805461076d90610af1565b80156107b85780601f1061078f576101008083540402835291602001916107b8565b820191905f5260205f20905b81548152906001019060200180831161079b57829003601f168201915b50505050509050919050565b5f80fd5b5f819050919050565b6107da816107c8565b81146107e4575f80fd5b50565b5f813590506107f5816107d1565b92915050565b5f602082840312156108105761080f6107c4565b5b5f61081d848285016107e7565b91505092915050565b5f81519050919050565b5f82825260208201905092915050565b5f5b8381101561085d578082015181840152602081019050610842565b5f8484015250505050565b5f601f19601f8301169050919050565b5f61088282610826565b61088c8185610830565b935061089c818560208601610840565b6108a581610868565b840191505092915050565b6108b9816107c8565b82525050565b5f60a0820190508181035f8301526108d78188610878565b905081810360208301526108eb8187610878565b90506108fa60408301866108b0565b61090760608301856108b0565b61091460808301846108b0565b9695505050505050565b5f6020820190508181035f8301526109368184610878565b905092915050565b5f73ffffffffffffffffffffffffffffffffffffffff82169050919050565b5f6109678261093e565b9050919050565b6109778161095d565b82525050565b5f6020820190506109905f83018461096e565b92915050565b61099f8161095d565b81146109a9575f80fd5b50565b5f813590506109ba81610996565b92915050565b5f602082840312156109d5576109d46107c4565b5b5f6109e2848285016109ac565b91505092915050565b5f8115159050919050565b6109ff816109eb565b82525050565b5f602082019050610a185f8301846109f6565b92915050565b5f602082019050610a315f8301846108b0565b92915050565b7f4e487b71000000000000000000000000000000000000000000000000000000005f52603260045260245ffd5b7f4e487b71000000000000000000000000000000000000000000000000000000005f52601160045260245ffd5b5f610a9b826107c8565b9150610aa6836107c8565b9250828201905080821115610abe57610abd610a64565b5b92915050565b7f4e487b71000000000000000000000000000000000000000000000000000000005f52602260045260245ffd5b5f6002820490506001821680610b0857607f821691505b602082108103610b1b57610b1a610ac4565b5b5091905056fea26469706673582212202cc423632b6321c230b388a548b067ab80cc64046b70e4cc974f81b02ceacb1a64736f6c63430008180033","opcodes":"PUSH1 0x80 PUSH1 0x40 MSTORE CALLVALUE DUP1 ISZERO PUSH3 0x10 JUMPI PUSH0 DUP1 REVERT JUMPDEST POP PUSH1 0x40 MLOAD PUSH3 0x1493 CODESIZE SUB DUP1 PUSH3 0x1493 DUP4 CODECOPY DUP2 DUP2 ADD PUSH1 0x40 MSTORE DUP2 ADD SWAP1 PUSH3 0x36 SWAP2 SWAP1 PUSH3 0x4A7 JUMP JUMPDEST DUP2 PUSH1 0x1 PUSH0 PUSH2 0x100 EXP DUP2 SLOAD DUP2 PUSH20 0xFFFFFFFFFFFFFFFFFFFFFFFFFFFFFFFFFFFFFFFF MUL NOT AND SWAP1 DUP4 PUSH20 0xFFFFFFFFFFFFFFFFFFFFFFFFFFFFFFFFFFFFFFFF AND MUL OR SWAP1 SSTORE POP DUP3 PUSH1 0x2 SWAP1 DUP2 PUSH3 0x87 SWAP2 SWAP1 PUSH3 0x7B6 JUMP JUMPDEST POP PUSH0 JUMPDEST DUP6 MLOAD DUP2 LT ISZERO PUSH3 0x185 JUMPI PUSH0 PUSH1 0x40 MLOAD DUP1 PUSH1 0xA0 ADD PUSH1 0x40 MSTORE DUP1 DUP9 DUP5 DUP2 MLOAD DUP2 LT PUSH3 0xB6 JUMPI PUSH3 0xB5 PUSH3 0x89A JUMP JUMPDEST JUMPDEST PUSH1 0x20 MUL PUSH1 0x20 ADD ADD MLOAD DUP2 MSTORE PUSH1 0x20 ADD DUP8 DUP5 DUP2 MLOAD DUP2 LT PUSH3 0xD9 JUMPI PUSH3 0xD8 PUSH3 0x89A JUMP JUMPDEST JUMPDEST PUSH1 0x20 MUL PUSH1 0x20 ADD ADD MLOAD DUP2 MSTORE PUSH1 0x20 ADD PUSH0 DUP2 MSTORE PUSH1 0x20 ADD TIMESTAMP DUP2 MSTORE PUSH1 0x20 ADD DUP5 TIMESTAMP PUSH3 0x100 SWAP2 SWAP1 PUSH3 0x8F4 JUMP JUMPDEST DUP2 MSTORE POP SWAP1 DUP1 PUSH1 0x1 DUP2 SLOAD ADD DUP1 DUP3 SSTORE DUP1 SWAP2 POP POP PUSH1 0x1 SWAP1 SUB SWAP1 PUSH0 MSTORE PUSH1 0x20 PUSH0 KECCAK256 SWAP1 PUSH1 0x5 MUL ADD PUSH0 SWAP1 SWAP2 SWAP1 SWAP2 SWAP1 SWAP2 POP PUSH0 DUP3 ADD MLOAD DUP2 PUSH0 ADD SWAP1 DUP2 PUSH3 0x13E SWAP2 SWAP1 PUSH3 0x7B6 JUMP JUMPDEST POP PUSH1 0x20 DUP3 ADD MLOAD DUP2 PUSH1 0x1 ADD SWAP1 DUP2 PUSH3 0x156 SWAP2 SWAP1 PUSH3 0x7B6 JUMP JUMPDEST POP PUSH1 0x40 DUP3 ADD MLOAD DUP2 PUSH1 0x2 ADD SSTORE PUSH1 0x60 DUP3 ADD MLOAD DUP2 PUSH1 0x3 ADD SSTORE PUSH1 0x80 DUP3 ADD MLOAD DUP2 PUSH1 0x4 ADD SSTORE POP POP DUP1 DUP1 PUSH1 0x1 ADD SWAP2 POP POP PUSH3 0x8A JUMP JUMPDEST POP POP POP POP POP POP PUSH3 0x92E JUMP JUMPDEST PUSH0 PUSH1 0x40 MLOAD SWAP1 POP SWAP1 JUMP JUMPDEST PUSH0 DUP1 REVERT JUMPDEST PUSH0 DUP1 REVERT JUMPDEST PUSH0 DUP1 REVERT JUMPDEST PUSH0 PUSH1 0x1F NOT PUSH1 0x1F DUP4 ADD AND SWAP1 POP SWAP2 SWAP1 POP JUMP JUMPDEST PUSH32 0x4E487B7100000000000000000000000000000000000000000000000000000000 PUSH0 MSTORE PUSH1 0x41 PUSH1 0x4 MSTORE PUSH1 0x24 PUSH0 REVERT JUMPDEST PUSH3 0x1EE DUP3 PUSH3 0x1A6 JUMP JUMPDEST DUP2 ADD DUP2 DUP2 LT PUSH8 0xFFFFFFFFFFFFFFFF DUP3 GT OR ISZERO PUSH3 0x210 JUMPI PUSH3 0x20F PUSH3 0x1B6 JUMP JUMPDEST JUMPDEST DUP1 PUSH1 0x40 MSTORE POP POP POP JUMP JUMPDEST PUSH0 PUSH3 0x224 PUSH3 0x191 JUMP JUMPDEST SWAP1 POP PUSH3 0x232 DUP3 DUP3 PUSH3 0x1E3 JUMP JUMPDEST SWAP2 SWAP1 POP JUMP JUMPDEST PUSH0 PUSH8 0xFFFFFFFFFFFFFFFF DUP3 GT ISZERO PUSH3 0x254 JUMPI PUSH3 0x253 PUSH3 0x1B6 JUMP JUMPDEST JUMPDEST PUSH1 0x20 DUP3 MUL SWAP1 POP PUSH1 0x20 DUP2 ADD SWAP1 POP SWAP2 SWAP1 POP JUMP JUMPDEST PUSH0 DUP1 REVERT JUMPDEST PUSH0 DUP1 REVERT JUMPDEST PUSH0 PUSH8 0xFFFFFFFFFFFFFFFF DUP3 GT ISZERO PUSH3 0x28A JUMPI PUSH3 0x289 PUSH3 0x1B6 JUMP JUMPDEST JUMPDEST PUSH3 0x295 DUP3 PUSH3 0x1A6 JUMP JUMPDEST SWAP1 POP PUSH1 0x20 DUP2 ADD SWAP1 POP SWAP2 SWAP1 POP JUMP JUMPDEST PUSH0 JUMPDEST DUP4 DUP2 LT ISZERO PUSH3 0x2C1 JUMPI DUP1 DUP3 ADD MLOAD DUP2 DUP5 ADD MSTORE PUSH1 0x20 DUP2 ADD SWAP1 POP PUSH3 0x2A4 JUMP JUMPDEST PUSH0 DUP5 DUP5 ADD MSTORE POP POP POP POP JUMP JUMPDEST PUSH0 PUSH3 0x2E2 PUSH3 0x2DC DUP5 PUSH3 0x26D JUMP JUMPDEST PUSH3 0x219 JUMP JUMPDEST SWAP1 POP DUP3 DUP2 MSTORE PUSH1 0x20 DUP2 ADD DUP5 DUP5 DUP5 ADD GT ISZERO PUSH3 0x301 JUMPI PUSH3 0x300 PUSH3 0x269 JUMP JUMPDEST JUMPDEST PUSH3 0x30E DUP5 DUP3 DUP6 PUSH3 0x2A2 JUMP JUMPDEST POP SWAP4 SWAP3 POP POP POP JUMP JUMPDEST PUSH0 DUP3 PUSH1 0x1F DUP4 ADD SLT PUSH3 0x32D JUMPI PUSH3 0x32C PUSH3 0x1A2 JUMP JUMPDEST JUMPDEST DUP2 MLOAD PUSH3 0x33F DUP5 DUP3 PUSH1 0x20 DUP7 ADD PUSH3 0x2CC JUMP JUMPDEST SWAP2 POP POP SWAP3 SWAP2 POP POP JUMP JUMPDEST PUSH0 PUSH3 0x35E PUSH3 0x358 DUP5 PUSH3 0x237 JUMP JUMPDEST PUSH3 0x219 JUMP JUMPDEST SWAP1 POP DUP1 DUP4 DUP3 MSTORE PUSH1 0x20 DUP3 ADD SWAP1 POP PUSH1 0x20 DUP5 MUL DUP4 ADD DUP6 DUP2 GT ISZERO PUSH3 0x384 JUMPI PUSH3 0x383 PUSH3 0x265 JUMP JUMPDEST JUMPDEST DUP4 JUMPDEST DUP2 DUP2 LT ISZERO PUSH3 0x3D2 JUMPI DUP1 MLOAD PUSH8 0xFFFFFFFFFFFFFFFF DUP2 GT ISZERO PUSH3 0x3AD JUMPI PUSH3 0x3AC PUSH3 0x1A2 JUMP JUMPDEST JUMPDEST DUP1 DUP7 ADD PUSH3 0x3BC DUP10 DUP3 PUSH3 0x316 JUMP JUMPDEST DUP6 MSTORE PUSH1 0x20 DUP6 ADD SWAP5 POP POP POP PUSH1 0x20 DUP2 ADD SWAP1 POP PUSH3 0x386 JUMP JUMPDEST POP POP POP SWAP4 SWAP3 POP POP POP JUMP JUMPDEST PUSH0 DUP3 PUSH1 0x1F DUP4 ADD SLT PUSH3 0x3F3 JUMPI PUSH3 0x3F2 PUSH3 0x1A2 JUMP JUMPDEST JUMPDEST DUP2 MLOAD PUSH3 0x405 DUP5 DUP3 PUSH1 0x20 DUP7 ADD PUSH3 0x348 JUMP JUMPDEST SWAP2 POP POP SWAP3 SWAP2 POP POP JUMP JUMPDEST PUSH0 PUSH20 0xFFFFFFFFFFFFFFFFFFFFFFFFFFFFFFFFFFFFFFFF DUP3 AND SWAP1 POP SWAP2 SWAP1 POP JUMP JUMPDEST PUSH0 PUSH3 0x439 DUP3 PUSH3 0x40E JUMP JUMPDEST SWAP1 POP SWAP2 SWAP1 POP JUMP JUMPDEST PUSH3 0x44B DUP2 PUSH3 0x42D JUMP JUMPDEST DUP2 EQ PUSH3 0x456 JUMPI PUSH0 DUP1 REVERT JUMPDEST POP JUMP JUMPDEST PUSH0 DUP2 MLOAD SWAP1 POP PUSH3 0x469 DUP2 PUSH3 0x440 JUMP JUMPDEST SWAP3 SWAP2 POP POP JUMP JUMPDEST PUSH0 DUP2 SWAP1 POP SWAP2 SWAP1 POP JUMP JUMPDEST PUSH3 0x483 DUP2 PUSH3 0x46F JUMP JUMPDEST DUP2 EQ PUSH3 0x48E JUMPI PUSH0 DUP1 REVERT JUMPDEST POP JUMP JUMPDEST PUSH0 DUP2 MLOAD SWAP1 POP PUSH3 0x4A1 DUP2 PUSH3 0x478 JUMP JUMPDEST SWAP3 SWAP2 POP POP JUMP JUMPDEST PUSH0 DUP1 PUSH0 DUP1 PUSH0 PUSH1 0xA0 DUP7 DUP9 SUB SLT ISZERO PUSH3 0x4C3 JUMPI PUSH3 0x4C2 PUSH3 0x19A JUMP JUMPDEST JUMPDEST PUSH0 DUP7 ADD MLOAD PUSH8 0xFFFFFFFFFFFFFFFF DUP2 GT ISZERO PUSH3 0x4E3 JUMPI PUSH3 0x4E2 PUSH3 0x19E JUMP JUMPDEST JUMPDEST PUSH3 0x4F1 DUP9 DUP3 DUP10 ADD PUSH3 0x3DC JUMP JUMPDEST SWAP6 POP POP PUSH1 0x20 DUP7 ADD MLOAD PUSH8 0xFFFFFFFFFFFFFFFF DUP2 GT ISZERO PUSH3 0x515 JUMPI PUSH3 0x514 PUSH3 0x19E JUMP JUMPDEST JUMPDEST PUSH3 0x523 DUP9 DUP3 DUP10 ADD PUSH3 0x3DC JUMP JUMPDEST SWAP5 POP POP PUSH1 0x40 DUP7 ADD MLOAD PUSH8 0xFFFFFFFFFFFFFFFF DUP2 GT ISZERO PUSH3 0x547 JUMPI PUSH3 0x546 PUSH3 0x19E JUMP JUMPDEST JUMPDEST PUSH3 0x555 DUP9 DUP3 DUP10 ADD PUSH3 0x316 JUMP JUMPDEST SWAP4 POP POP PUSH1 0x60 PUSH3 0x568 DUP9 DUP3 DUP10 ADD PUSH3 0x459 JUMP JUMPDEST SWAP3 POP POP PUSH1 0x80 PUSH3 0x57B DUP9 DUP3 DUP10 ADD PUSH3 0x491 JUMP JUMPDEST SWAP2 POP POP SWAP3 SWAP6 POP SWAP3 SWAP6 SWAP1 SWAP4 POP JUMP JUMPDEST PUSH0 DUP2 MLOAD SWAP1 POP SWAP2 SWAP1 POP JUMP JUMPDEST PUSH32 0x4E487B7100000000000000000000000000000000000000000000000000000000 PUSH0 MSTORE PUSH1 0x22 PUSH1 0x4 MSTORE PUSH1 0x24 PUSH0 REVERT JUMPDEST PUSH0 PUSH1 0x2 DUP3 DIV SWAP1 POP PUSH1 0x1 DUP3 AND DUP1 PUSH3 0x5D7 JUMPI PUSH1 0x7F DUP3 AND SWAP2 POP JUMPDEST PUSH1 0x20 DUP3 LT DUP2 SUB PUSH3 0x5ED JUMPI PUSH3 0x5EC PUSH3 0x592 JUMP JUMPDEST JUMPDEST POP SWAP2 SWAP1 POP JUMP JUMPDEST PUSH0 DUP2 SWAP1 POP DUP2 PUSH0 MSTORE PUSH1 0x20 PUSH0 KECCAK256 SWAP1 POP SWAP2 SWAP1 POP JUMP JUMPDEST PUSH0 PUSH1 0x20 PUSH1 0x1F DUP4 ADD DIV SWAP1 POP SWAP2 SWAP1 POP JUMP JUMPDEST PUSH0 DUP3 DUP3 SHL SWAP1 POP SWAP3 SWAP2 POP POP JUMP JUMPDEST PUSH0 PUSH1 0x8 DUP4 MUL PUSH3 0x651 PUSH32 0xFFFFFFFFFFFFFFFFFFFFFFFFFFFFFFFFFFFFFFFFFFFFFFFFFFFFFFFFFFFFFFFF DUP3 PUSH3 0x614 JUMP JUMPDEST PUSH3 0x65D DUP7 DUP4 PUSH3 0x614 JUMP JUMPDEST SWAP6 POP DUP1 NOT DUP5 AND SWAP4 POP DUP1 DUP7 AND DUP5 OR SWAP3 POP POP POP SWAP4 SWAP3 POP POP POP JUMP JUMPDEST PUSH0 DUP2 SWAP1 POP SWAP2 SWAP1 POP JUMP JUMPDEST PUSH0 PUSH3 0x69E PUSH3 0x698 PUSH3 0x692 DUP5 PUSH3 0x46F JUMP JUMPDEST PUSH3 0x675 JUMP JUMPDEST PUSH3 0x46F JUMP JUMPDEST SWAP1 POP SWAP2 SWAP1 POP JUMP JUMPDEST PUSH0 DUP2 SWAP1 POP SWAP2 SWAP1 POP JUMP JUMPDEST PUSH3 0x6B9 DUP4 PUSH3 0x67E JUMP JUMPDEST PUSH3 0x6D1 PUSH3 0x6C8 DUP3 PUSH3 0x6A5 JUMP JUMPDEST DUP5 DUP5 SLOAD PUSH3 0x620 JUMP JUMPDEST DUP3 SSTORE POP POP POP POP JUMP JUMPDEST PUSH0 SWAP1 JUMP JUMPDEST PUSH3 0x6E7 PUSH3 0x6D9 JUMP JUMPDEST PUSH3 0x6F4 DUP2 DUP5 DUP5 PUSH3 0x6AE JUMP JUMPDEST POP POP POP JUMP JUMPDEST JUMPDEST DUP2 DUP2 LT ISZERO PUSH3 0x71B JUMPI PUSH3 0x70F PUSH0 DUP3 PUSH3 0x6DD JUMP JUMPDEST PUSH1 0x1 DUP2 ADD SWAP1 POP PUSH3 0x6FA JUMP JUMPDEST POP POP JUMP JUMPDEST PUSH1 0x1F DUP3 GT ISZERO PUSH3 0x76A JUMPI PUSH3 0x734 DUP2 PUSH3 0x5F3 JUMP JUMPDEST PUSH3 0x73F DUP5 PUSH3 0x605 JUMP JUMPDEST DUP2 ADD PUSH1 0x20 DUP6 LT ISZERO PUSH3 0x74F JUMPI DUP2 SWAP1 POP JUMPDEST PUSH3 0x767 PUSH3 0x75E DUP6 PUSH3 0x605 JUMP JUMPDEST DUP4 ADD DUP3 PUSH3 0x6F9 JUMP JUMPDEST POP POP JUMPDEST POP POP POP JUMP JUMPDEST PUSH0 DUP3 DUP3 SHR SWAP1 POP SWAP3 SWAP2 POP POP JUMP JUMPDEST PUSH0 PUSH3 0x78C PUSH0 NOT DUP5 PUSH1 0x8 MUL PUSH3 0x76F JUMP JUMPDEST NOT DUP1 DUP4 AND SWAP2 POP POP SWAP3 SWAP2 POP POP JUMP JUMPDEST PUSH0 PUSH3 0x7A6 DUP4 DUP4 PUSH3 0x77B JUMP JUMPDEST SWAP2 POP DUP3 PUSH1 0x2 MUL DUP3 OR SWAP1 POP SWAP3 SWAP2 POP POP JUMP JUMPDEST PUSH3 0x7C1 DUP3 PUSH3 0x588 JUMP JUMPDEST PUSH8 0xFFFFFFFFFFFFFFFF DUP2 GT ISZERO PUSH3 0x7DD JUMPI PUSH3 0x7DC PUSH3 0x1B6 JUMP JUMPDEST JUMPDEST PUSH3 0x7E9 DUP3 SLOAD PUSH3 0x5BF JUMP JUMPDEST PUSH3 0x7F6 DUP3 DUP3 DUP6 PUSH3 0x71F JUMP JUMPDEST PUSH0 PUSH1 0x20 SWAP1 POP PUSH1 0x1F DUP4 GT PUSH1 0x1 DUP2 EQ PUSH3 0x82C JUMPI PUSH0 DUP5 ISZERO PUSH3 0x817 JUMPI DUP3 DUP8 ADD MLOAD SWAP1 POP JUMPDEST PUSH3 0x823 DUP6 DUP3 PUSH3 0x799 JUMP JUMPDEST DUP7 SSTORE POP PUSH3 0x892 JUMP JUMPDEST PUSH1 0x1F NOT DUP5 AND PUSH3 0x83C DUP7 PUSH3 0x5F3 JUMP JUMPDEST PUSH0 JUMPDEST DUP3 DUP2 LT ISZERO PUSH3 0x865 JUMPI DUP5 DUP10 ADD MLOAD DUP3 SSTORE PUSH1 0x1 DUP3 ADD SWAP2 POP PUSH1 0x20 DUP6 ADD SWAP5 POP PUSH1 0x20 DUP2 ADD SWAP1 POP PUSH3 0x83E JUMP JUMPDEST DUP7 DUP4 LT ISZERO PUSH3 0x885 JUMPI DUP5 DUP10 ADD MLOAD PUSH3 0x881 PUSH1 0x1F DUP10 AND DUP3 PUSH3 0x77B JUMP JUMPDEST DUP4 SSTORE POP JUMPDEST PUSH1 0x1 PUSH1 0x2 DUP9 MUL ADD DUP9 SSTORE POP POP POP JUMPDEST POP POP POP POP POP POP JUMP JUMPDEST PUSH32 0x4E487B7100000000000000000000000000000000000000000000000000000000 PUSH0 MSTORE PUSH1 0x32 PUSH1 0x4 MSTORE PUSH1 0x24 PUSH0 REVERT JUMPDEST PUSH32 0x4E487B7100000000000000000000000000000000000000000000000000000000 PUSH0 MSTORE PUSH1 0x11 PUSH1 0x4 MSTORE PUSH1 0x24 PUSH0 REVERT JUMPDEST PUSH0 PUSH3 0x900 DUP3 PUSH3 0x46F JUMP JUMPDEST SWAP2 POP PUSH3 0x90D DUP4 PUSH3 0x46F JUMP JUMPDEST SWAP3 POP DUP3 DUP3 ADD SWAP1 POP DUP1 DUP3 GT ISZERO PUSH3 0x928 JUMPI PUSH3 0x927 PUSH3 0x8C7 JUMP JUMPDEST JUMPDEST SWAP3 SWAP2 POP POP JUMP JUMPDEST PUSH2 0xB57 DUP1 PUSH3 0x93C PUSH0 CODECOPY PUSH0 RETURN INVALID PUSH1 0x80 PUSH1 0x40 MSTORE CALLVALUE DUP1 ISZERO PUSH2 0xF JUMPI PUSH0 DUP1 REVERT JUMPDEST POP PUSH1 0x4 CALLDATASIZE LT PUSH2 0x86 JUMPI PUSH0 CALLDATALOAD PUSH1 0xE0 SHR DUP1 PUSH4 0x716C424E GT PUSH2 0x59 JUMPI DUP1 PUSH4 0x716C424E EQ PUSH2 0x128 JUMPI DUP1 PUSH4 0xA3EC138D EQ PUSH2 0x146 JUMPI DUP1 PUSH4 0xB2C2F2E8 EQ PUSH2 0x176 JUMPI DUP1 PUSH4 0xE13804A7 EQ PUSH2 0x1A6 JUMPI PUSH2 0x86 JUMP JUMPDEST DUP1 PUSH4 0x121B93F EQ PUSH2 0x8A JUMPI DUP1 PUSH4 0x3477EE2E EQ PUSH2 0xA6 JUMPI DUP1 PUSH4 0x456645A7 EQ PUSH2 0xDA JUMPI DUP1 PUSH4 0x481C6A75 EQ PUSH2 0x10A JUMPI JUMPDEST PUSH0 DUP1 REVERT JUMPDEST PUSH2 0xA4 PUSH1 0x4 DUP1 CALLDATASIZE SUB DUP2 ADD SWAP1 PUSH2 0x9F SWAP2 SWAP1 PUSH2 0x7FB JUMP JUMPDEST PUSH2 0x1D6 JUMP JUMPDEST STOP JUMPDEST PUSH2 0xC0 PUSH1 0x4 DUP1 CALLDATASIZE SUB DUP2 ADD SWAP1 PUSH2 0xBB SWAP2 SWAP1 PUSH2 0x7FB JUMP JUMPDEST PUSH2 0x2BA JUMP JUMPDEST PUSH1 0x40 MLOAD PUSH2 0xD1 SWAP6 SWAP5 SWAP4 SWAP3 SWAP2 SWAP1 PUSH2 0x8BF JUMP JUMPDEST PUSH1 0x40 MLOAD DUP1 SWAP2 SUB SWAP1 RETURN JUMPDEST PUSH2 0xF4 PUSH1 0x4 DUP1 CALLDATASIZE SUB DUP2 ADD SWAP1 PUSH2 0xEF SWAP2 SWAP1 PUSH2 0x7FB JUMP JUMPDEST PUSH2 0x406 JUMP JUMPDEST PUSH1 0x40 MLOAD PUSH2 0x101 SWAP2 SWAP1 PUSH2 0x91E JUMP JUMPDEST PUSH1 0x40 MLOAD DUP1 SWAP2 SUB SWAP1 RETURN JUMPDEST PUSH2 0x112 PUSH2 0x53D JUMP JUMPDEST PUSH1 0x40 MLOAD PUSH2 0x11F SWAP2 SWAP1 PUSH2 0x97D JUMP JUMPDEST PUSH1 0x40 MLOAD DUP1 SWAP2 SUB SWAP1 RETURN JUMPDEST PUSH2 0x130 PUSH2 0x562 JUMP JUMPDEST PUSH1 0x40 MLOAD PUSH2 0x13D SWAP2 SWAP1 PUSH2 0x91E JUMP JUMPDEST PUSH1 0x40 MLOAD DUP1 SWAP2 SUB SWAP1 RETURN JUMPDEST PUSH2 0x160 PUSH1 0x4 DUP1 CALLDATASIZE SUB DUP2 ADD SWAP1 PUSH2 0x15B SWAP2 SWAP1 PUSH2 0x9C0 JUMP JUMPDEST PUSH2 0x5EE JUMP JUMPDEST PUSH1 0x40 MLOAD PUSH2 0x16D SWAP2 SWAP1 PUSH2 0xA05 JUMP JUMPDEST PUSH1 0x40 MLOAD DUP1 SWAP2 SUB SWAP1 RETURN JUMPDEST PUSH2 0x190 PUSH1 0x4 DUP1 CALLDATASIZE SUB DUP2 ADD SWAP1 PUSH2 0x18B SWAP2 SWAP1 PUSH2 0x7FB JUMP JUMPDEST PUSH2 0x60B JUMP JUMPDEST PUSH1 0x40 MLOAD PUSH2 0x19D SWAP2 SWAP1 PUSH2 0xA1E JUMP JUMPDEST PUSH1 0x40 MLOAD DUP1 SWAP2 SUB SWAP1 RETURN JUMPDEST PUSH2 0x1C0 PUSH1 0x4 DUP1 CALLDATASIZE SUB DUP2 ADD SWAP1 PUSH2 0x1BB SWAP2 SWAP1 PUSH2 0x7FB JUMP JUMPDEST PUSH2 0x68E JUMP JUMPDEST PUSH1 0x40 MLOAD PUSH2 0x1CD SWAP2 SWAP1 PUSH2 0x91E JUMP JUMPDEST PUSH1 0x40 MLOAD DUP1 SWAP2 SUB SWAP1 RETURN JUMPDEST PUSH1 0x3 PUSH0 CALLER PUSH20 0xFFFFFFFFFFFFFFFFFFFFFFFFFFFFFFFFFFFFFFFF AND PUSH20 0xFFFFFFFFFFFFFFFFFFFFFFFFFFFFFFFFFFFFFFFF AND DUP2 MSTORE PUSH1 0x20 ADD SWAP1 DUP2 MSTORE PUSH1 0x20 ADD PUSH0 KECCAK256 PUSH0 SWAP1 SLOAD SWAP1 PUSH2 0x100 EXP SWAP1 DIV PUSH1 0xFF AND ISZERO PUSH2 0x229 JUMPI PUSH0 DUP1 REVERT JUMPDEST PUSH1 0x1 PUSH0 DUP3 DUP2 SLOAD DUP2 LT PUSH2 0x23E JUMPI PUSH2 0x23D PUSH2 0xA37 JUMP JUMPDEST JUMPDEST SWAP1 PUSH0 MSTORE PUSH1 0x20 PUSH0 KECCAK256 SWAP1 PUSH1 0x5 MUL ADD PUSH1 0x2 ADD PUSH0 DUP3 DUP3 SLOAD PUSH2 0x25B SWAP2 SWAP1 PUSH2 0xA91 JUMP JUMPDEST SWAP3 POP POP DUP2 SWAP1 SSTORE POP PUSH1 0x1 PUSH1 0x3 PUSH0 CALLER PUSH20 0xFFFFFFFFFFFFFFFFFFFFFFFFFFFFFFFFFFFFFFFF AND PUSH20 0xFFFFFFFFFFFFFFFFFFFFFFFFFFFFFFFFFFFFFFFF AND DUP2 MSTORE PUSH1 0x20 ADD SWAP1 DUP2 MSTORE PUSH1 0x20 ADD PUSH0 KECCAK256 PUSH0 PUSH2 0x100 EXP DUP2 SLOAD DUP2 PUSH1 0xFF MUL NOT AND SWAP1 DUP4 ISZERO ISZERO MUL OR SWAP1 SSTORE POP POP JUMP JUMPDEST PUSH0 DUP2 DUP2 SLOAD DUP2 LT PUSH2 0x2C8 JUMPI PUSH0 DUP1 REVERT JUMPDEST SWAP1 PUSH0 MSTORE PUSH1 0x20 PUSH0 KECCAK256 SWAP1 PUSH1 0x5 MUL ADD PUSH0 SWAP2 POP SWAP1 POP DUP1 PUSH0 ADD DUP1 SLOAD PUSH2 0x2E7 SWAP1 PUSH2 0xAF1 JUMP JUMPDEST DUP1 PUSH1 0x1F ADD PUSH1 0x20 DUP1 SWAP2 DIV MUL PUSH1 0x20 ADD PUSH1 0x40 MLOAD SWAP1 DUP2 ADD PUSH1 0x40 MSTORE DUP1 SWAP3 SWAP2 SWAP1 DUP2 DUP2 MSTORE PUSH1 0x20 ADD DUP3 DUP1 SLOAD PUSH2 0x313 SWAP1 PUSH2 0xAF1 JUMP JUMPDEST DUP1 ISZERO PUSH2 0x35E JUMPI DUP1 PUSH1 0x1F LT PUSH2 0x335 JUMPI PUSH2 0x100 DUP1 DUP4 SLOAD DIV MUL DUP4 MSTORE SWAP2 PUSH1 0x20 ADD SWAP2 PUSH2 0x35E JUMP JUMPDEST DUP3 ADD SWAP2 SWAP1 PUSH0 MSTORE PUSH1 0x20 PUSH0 KECCAK256 SWAP1 JUMPDEST DUP2 SLOAD DUP2 MSTORE SWAP1 PUSH1 0x1 ADD SWAP1 PUSH1 0x20 ADD DUP1 DUP4 GT PUSH2 0x341 JUMPI DUP3 SWAP1 SUB PUSH1 0x1F AND DUP3 ADD SWAP2 JUMPDEST POP POP POP POP POP SWAP1 DUP1 PUSH1 0x1 ADD DUP1 SLOAD PUSH2 0x373 SWAP1 PUSH2 0xAF1 JUMP JUMPDEST DUP1 PUSH1 0x1F ADD PUSH1 0x20 DUP1 SWAP2 DIV MUL PUSH1 0x20 ADD PUSH1 0x40 MLOAD SWAP1 DUP2 ADD PUSH1 0x40 MSTORE DUP1 SWAP3 SWAP2 SWAP1 DUP2 DUP2 MSTORE PUSH1 0x20 ADD DUP3 DUP1 SLOAD PUSH2 0x39F SWAP1 PUSH2 0xAF1 JUMP JUMPDEST DUP1 ISZERO PUSH2 0x3EA JUMPI DUP1 PUSH1 0x1F LT PUSH2 0x3C1 JUMPI PUSH2 0x100 DUP1 DUP4 SLOAD DIV MUL DUP4 MSTORE SWAP2 PUSH1 0x20 ADD SWAP2 PUSH2 0x3EA JUMP JUMPDEST DUP3 ADD SWAP2 SWAP1 PUSH0 MSTORE PUSH1 0x20 PUSH0 KECCAK256 SWAP1 JUMPDEST DUP2 SLOAD DUP2 MSTORE SWAP1 PUSH1 0x1 ADD SWAP1 PUSH1 0x20 ADD DUP1 DUP4 GT PUSH2 0x3CD JUMPI DUP3 SWAP1 SUB PUSH1 0x1F AND DUP3 ADD SWAP2 JUMPDEST POP POP POP POP POP SWAP1 DUP1 PUSH1 0x2 ADD SLOAD SWAP1 DUP1 PUSH1 0x3 ADD SLOAD SWAP1 DUP1 PUSH1 0x4 ADD SLOAD SWAP1 POP DUP6 JUMP JUMPDEST PUSH1 0x60 PUSH1 0x1 PUSH0 SWAP1 SLOAD SWAP1 PUSH2 0x100 EXP SWAP1 DIV PUSH20 0xFFFFFFFFFFFFFFFFFFFFFFFFFFFFFFFFFFFFFFFF AND PUSH20 0xFFFFFFFFFFFFFFFFFFFFFFFFFFFFFFFFFFFFFFFF AND CALLER PUSH20 0xFFFFFFFFFFFFFFFFFFFFFFFFFFFFFFFFFFFFFFFF AND EQ PUSH2 0x460 JUMPI PUSH0 DUP1 REVERT JUMPDEST PUSH0 DUP3 DUP2 SLOAD DUP2 LT PUSH2 0x473 JUMPI PUSH2 0x472 PUSH2 0xA37 JUMP JUMPDEST JUMPDEST SWAP1 PUSH0 MSTORE PUSH1 0x20 PUSH0 KECCAK256 SWAP1 PUSH1 0x5 MUL ADD PUSH1 0x4 ADD SLOAD TIMESTAMP GT PUSH2 0x48D JUMPI PUSH0 DUP1 REVERT JUMPDEST PUSH0 DUP3 DUP2 SLOAD DUP2 LT PUSH2 0x4A0 JUMPI PUSH2 0x49F PUSH2 0xA37 JUMP JUMPDEST JUMPDEST SWAP1 PUSH0 MSTORE PUSH1 0x20 PUSH0 KECCAK256 SWAP1 PUSH1 0x5 MUL ADD PUSH1 0x1 ADD DUP1 SLOAD PUSH2 0x4BA SWAP1 PUSH2 0xAF1 JUMP JUMPDEST DUP1 PUSH1 0x1F ADD PUSH1 0x20 DUP1 SWAP2 DIV MUL PUSH1 0x20 ADD PUSH1 0x40 MLOAD SWAP1 DUP2 ADD PUSH1 0x40 MSTORE DUP1 SWAP3 SWAP2 SWAP1 DUP2 DUP2 MSTORE PUSH1 0x20 ADD DUP3 DUP1 SLOAD PUSH2 0x4E6 SWAP1 PUSH2 0xAF1 JUMP JUMPDEST DUP1 ISZERO PUSH2 0x531 JUMPI DUP1 PUSH1 0x1F LT PUSH2 0x508 JUMPI PUSH2 0x100 DUP1 DUP4 SLOAD DIV MUL DUP4 MSTORE SWAP2 PUSH1 0x20 ADD SWAP2 PUSH2 0x531 JUMP JUMPDEST DUP3 ADD SWAP2 SWAP1 PUSH0 MSTORE PUSH1 0x20 PUSH0 KECCAK256 SWAP1 JUMPDEST DUP2 SLOAD DUP2 MSTORE SWAP1 PUSH1 0x1 ADD SWAP1 PUSH1 0x20 ADD DUP1 DUP4 GT PUSH2 0x514 JUMPI DUP3 SWAP1 SUB PUSH1 0x1F AND DUP3 ADD SWAP2 JUMPDEST POP POP POP POP POP SWAP1 POP SWAP2 SWAP1 POP JUMP JUMPDEST PUSH1 0x1 PUSH0 SWAP1 SLOAD SWAP1 PUSH2 0x100 EXP SWAP1 DIV PUSH20 0xFFFFFFFFFFFFFFFFFFFFFFFFFFFFFFFFFFFFFFFF AND DUP2 JUMP JUMPDEST PUSH1 0x2 DUP1 SLOAD PUSH2 0x56F SWAP1 PUSH2 0xAF1 JUMP JUMPDEST DUP1 PUSH1 0x1F ADD PUSH1 0x20 DUP1 SWAP2 DIV MUL PUSH1 0x20 ADD PUSH1 0x40 MLOAD SWAP1 DUP2 ADD PUSH1 0x40 MSTORE DUP1 SWAP3 SWAP2 SWAP1 DUP2 DUP2 MSTORE PUSH1 0x20 ADD DUP3 DUP1 SLOAD PUSH2 0x59B SWAP1 PUSH2 0xAF1 JUMP JUMPDEST DUP1 ISZERO PUSH2 0x5E6 JUMPI DUP1 PUSH1 0x1F LT PUSH2 0x5BD JUMPI PUSH2 0x100 DUP1 DUP4 SLOAD DIV MUL DUP4 MSTORE SWAP2 PUSH1 0x20 ADD SWAP2 PUSH2 0x5E6 JUMP JUMPDEST DUP3 ADD SWAP2 SWAP1 PUSH0 MSTORE PUSH1 0x20 PUSH0 KECCAK256 SWAP1 JUMPDEST DUP2 SLOAD DUP2 MSTORE SWAP1 PUSH1 0x1 ADD SWAP1 PUSH1 0x20 ADD DUP1 DUP4 GT PUSH2 0x5C9 JUMPI DUP3 SWAP1 SUB PUSH1 0x1F AND DUP3 ADD SWAP2 JUMPDEST POP POP POP POP POP DUP2 JUMP JUMPDEST PUSH1 0x3 PUSH1 0x20 MSTORE DUP1 PUSH0 MSTORE PUSH1 0x40 PUSH0 KECCAK256 PUSH0 SWAP2 POP SLOAD SWAP1 PUSH2 0x100 EXP SWAP1 DIV PUSH1 0xFF AND DUP2 JUMP JUMPDEST PUSH0 PUSH1 0x1 PUSH0 SWAP1 SLOAD SWAP1 PUSH2 0x100 EXP SWAP1 DIV PUSH20 0xFFFFFFFFFFFFFFFFFFFFFFFFFFFFFFFFFFFFFFFF AND PUSH20 0xFFFFFFFFFFFFFFFFFFFFFFFFFFFFFFFFFFFFFFFF AND CALLER PUSH20 0xFFFFFFFFFFFFFFFFFFFFFFFFFFFFFFFFFFFFFFFF AND EQ PUSH2 0x664 JUMPI PUSH0 DUP1 REVERT JUMPDEST PUSH0 DUP3 DUP2 SLOAD DUP2 LT PUSH2 0x677 JUMPI PUSH2 0x676 PUSH2 0xA37 JUMP JUMPDEST JUMPDEST SWAP1 PUSH0 MSTORE PUSH1 0x20 PUSH0 KECCAK256 SWAP1 PUSH1 0x5 MUL ADD PUSH1 0x2 ADD SLOAD SWAP1 POP SWAP2 SWAP1 POP JUMP JUMPDEST PUSH1 0x60 PUSH1 0x1 PUSH0 SWAP1 SLOAD SWAP1 PUSH2 0x100 EXP SWAP1 DIV PUSH20 0xFFFFFFFFFFFFFFFFFFFFFFFFFFFFFFFFFFFFFFFF AND PUSH20 0xFFFFFFFFFFFFFFFFFFFFFFFFFFFFFFFFFFFFFFFF AND CALLER PUSH20 0xFFFFFFFFFFFFFFFFFFFFFFFFFFFFFFFFFFFFFFFF AND EQ PUSH2 0x6E8 JUMPI PUSH0 DUP1 REVERT JUMPDEST PUSH0 DUP3 DUP2 SLOAD DUP2 LT PUSH2 0x6FB JUMPI PUSH2 0x6FA PUSH2 0xA37 JUMP JUMPDEST JUMPDEST SWAP1 PUSH0 MSTORE PUSH1 0x20 PUSH0 KECCAK256 SWAP1 PUSH1 0x5 MUL ADD PUSH1 0x4 ADD SLOAD TIMESTAMP GT PUSH2 0x715 JUMPI PUSH0 DUP1 REVERT JUMPDEST PUSH0 DUP3 DUP2 SLOAD DUP2 LT PUSH2 0x728 JUMPI PUSH2 0x727 PUSH2 0xA37 JUMP JUMPDEST JUMPDEST SWAP1 PUSH0 MSTORE PUSH1 0x20 PUSH0 KECCAK256 SWAP1 PUSH1 0x5 MUL ADD PUSH0 ADD DUP1 SLOAD PUSH2 0x741 SWAP1 PUSH2 0xAF1 JUMP JUMPDEST DUP1 PUSH1 0x1F ADD PUSH1 0x20 DUP1 SWAP2 DIV MUL PUSH1 0x20 ADD PUSH1 0x40 MLOAD SWAP1 DUP2 ADD PUSH1 0x40 MSTORE DUP1 SWAP3 SWAP2 SWAP1 DUP2 DUP2 MSTORE PUSH1 0x20 ADD DUP3 DUP1 SLOAD PUSH2 0x76D SWAP1 PUSH2 0xAF1 JUMP JUMPDEST DUP1 ISZERO PUSH2 0x7B8 JUMPI DUP1 PUSH1 0x1F LT PUSH2 0x78F JUMPI PUSH2 0x100 DUP1 DUP4 SLOAD DIV MUL DUP4 MSTORE SWAP2 PUSH1 0x20 ADD SWAP2 PUSH2 0x7B8 JUMP JUMPDEST DUP3 ADD SWAP2 SWAP1 PUSH0 MSTORE PUSH1 0x20 PUSH0 KECCAK256 SWAP1 JUMPDEST DUP2 SLOAD DUP2 MSTORE SWAP1 PUSH1 0x1 ADD SWAP1 PUSH1 0x20 ADD DUP1 DUP4 GT PUSH2 0x79B JUMPI DUP3 SWAP1 SUB PUSH1 0x1F AND DUP3 ADD SWAP2 JUMPDEST POP POP POP POP POP SWAP1 POP SWAP2 SWAP1 POP JUMP JUMPDEST PUSH0 DUP1 REVERT JUMPDEST PUSH0 DUP2 SWAP1 POP SWAP2 SWAP1 POP JUMP JUMPDEST PUSH2 0x7DA DUP2 PUSH2 0x7C8 JUMP JUMPDEST DUP2 EQ PUSH2 0x7E4 JUMPI PUSH0 DUP1 REVERT JUMPDEST POP JUMP JUMPDEST PUSH0 DUP2 CALLDATALOAD SWAP1 POP PUSH2 0x7F5 DUP2 PUSH2 0x7D1 JUMP JUMPDEST SWAP3 SWAP2 POP POP JUMP JUMPDEST PUSH0 PUSH1 0x20 DUP3 DUP5 SUB SLT ISZERO PUSH2 0x810 JUMPI PUSH2 0x80F PUSH2 0x7C4 JUMP JUMPDEST JUMPDEST PUSH0 PUSH2 0x81D DUP5 DUP3 DUP6 ADD PUSH2 0x7E7 JUMP JUMPDEST SWAP2 POP POP SWAP3 SWAP2 POP POP JUMP JUMPDEST PUSH0 DUP2 MLOAD SWAP1 POP SWAP2 SWAP1 POP JUMP JUMPDEST PUSH0 DUP3 DUP3 MSTORE PUSH1 0x20 DUP3 ADD SWAP1 POP SWAP3 SWAP2 POP POP JUMP JUMPDEST PUSH0 JUMPDEST DUP4 DUP2 LT ISZERO PUSH2 0x85D JUMPI DUP1 DUP3 ADD MLOAD DUP2 DUP5 ADD MSTORE PUSH1 0x20 DUP2 ADD SWAP1 POP PUSH2 0x842 JUMP JUMPDEST PUSH0 DUP5 DUP5 ADD MSTORE POP POP POP POP JUMP JUMPDEST PUSH0 PUSH1 0x1F NOT PUSH1 0x1F DUP4 ADD AND SWAP1 POP SWAP2 SWAP1 POP JUMP JUMPDEST PUSH0 PUSH2 0x882 DUP3 PUSH2 0x826 JUMP JUMPDEST PUSH2 0x88C DUP2 DUP6 PUSH2 0x830 JUMP JUMPDEST SWAP4 POP PUSH2 0x89C DUP2 DUP6 PUSH1 0x20 DUP7 ADD PUSH2 0x840 JUMP JUMPDEST PUSH2 0x8A5 DUP2 PUSH2 0x868 JUMP JUMPDEST DUP5 ADD SWAP2 POP POP SWAP3 SWAP2 POP POP JUMP JUMPDEST PUSH2 0x8B9 DUP2 PUSH2 0x7C8 JUMP JUMPDEST DUP3 MSTORE POP POP JUMP JUMPDEST PUSH0 PUSH1 0xA0 DUP3 ADD SWAP1 POP DUP2 DUP2 SUB PUSH0 DUP4 ADD MSTORE PUSH2 0x8D7 DUP2 DUP9 PUSH2 0x878 JUMP JUMPDEST SWAP1 POP DUP2 DUP2 SUB PUSH1 0x20 DUP4 ADD MSTORE PUSH2 0x8EB DUP2 DUP8 PUSH2 0x878 JUMP JUMPDEST SWAP1 POP PUSH2 0x8FA PUSH1 0x40 DUP4 ADD DUP7 PUSH2 0x8B0 JUMP JUMPDEST PUSH2 0x907 PUSH1 0x60 DUP4 ADD DUP6 PUSH2 0x8B0 JUMP JUMPDEST PUSH2 0x914 PUSH1 0x80 DUP4 ADD DUP5 PUSH2 0x8B0 JUMP JUMPDEST SWAP7 SWAP6 POP POP POP POP POP POP JUMP JUMPDEST PUSH0 PUSH1 0x20 DUP3 ADD SWAP1 POP DUP2 DUP2 SUB PUSH0 DUP4 ADD MSTORE PUSH2 0x936 DUP2 DUP5 PUSH2 0x878 JUMP JUMPDEST SWAP1 POP SWAP3 SWAP2 POP POP JUMP JUMPDEST PUSH0 PUSH20 0xFFFFFFFFFFFFFFFFFFFFFFFFFFFFFFFFFFFFFFFF DUP3 AND SWAP1 POP SWAP2 SWAP1 POP JUMP JUMPDEST PUSH0 PUSH2 0x967 DUP3 PUSH2 0x93E JUMP JUMPDEST SWAP1 POP SWAP2 SWAP1 POP JUMP JUMPDEST PUSH2 0x977 DUP2 PUSH2 0x95D JUMP JUMPDEST DUP3 MSTORE POP POP JUMP JUMPDEST PUSH0 PUSH1 0x20 DUP3 ADD SWAP1 POP PUSH2 0x990 PUSH0 DUP4 ADD DUP5 PUSH2 0x96E JUMP JUMPDEST SWAP3 SWAP2 POP POP JUMP JUMPDEST PUSH2 0x99F DUP2 PUSH2 0x95D JUMP JUMPDEST DUP2 EQ PUSH2 0x9A9 JUMPI PUSH0 DUP1 REVERT JUMPDEST POP JUMP JUMPDEST PUSH0 DUP2 CALLDATALOAD SWAP1 POP PUSH2 0x9BA DUP2 PUSH2 0x996 JUMP JUMPDEST SWAP3 SWAP2 POP POP JUMP JUMPDEST PUSH0 PUSH1 0x20 DUP3 DUP5 SUB SLT ISZERO PUSH2 0x9D5 JUMPI PUSH2 0x9D4 PUSH2 0x7C4 JUMP JUMPDEST JUMPDEST PUSH0 PUSH2 0x9E2 DUP5 DUP3 DUP6 ADD PUSH2 0x9AC JUMP JUMPDEST SWAP2 POP POP SWAP3 SWAP2 POP POP JUMP JUMPDEST PUSH0 DUP2 ISZERO ISZERO SWAP1 POP SWAP2 SWAP1 POP JUMP JUMPDEST PUSH2 0x9FF DUP2 PUSH2 0x9EB JUMP JUMPDEST DUP3 MSTORE POP POP JUMP JUMPDEST PUSH0 PUSH1 0x20 DUP3 ADD SWAP1 POP PUSH2 0xA18 PUSH0 DUP4 ADD DUP5 PUSH2 0x9F6 JUMP JUMPDEST SWAP3 SWAP2 POP POP JUMP JUMPDEST PUSH0 PUSH1 0x20 DUP3 ADD SWAP1 POP PUSH2 0xA31 PUSH0 DUP4 ADD DUP5 PUSH2 0x8B0 JUMP JUMPDEST SWAP3 SWAP2 POP POP JUMP JUMPDEST PUSH32 0x4E487B7100000000000000000000000000000000000000000000000000000000 PUSH0 MSTORE PUSH1 0x32 PUSH1 0x4 MSTORE PUSH1 0x24 PUSH0 REVERT JUMPDEST PUSH32 0x4E487B7100000000000000000000000000000000000000000000000000000000 PUSH0 MSTORE PUSH1 0x11 PUSH1 0x4 MSTORE PUSH1 0x24 PUSH0 REVERT JUMPDEST PUSH0 PUSH2 0xA9B DUP3 PUSH2 0x7C8 JUMP JUMPDEST SWAP2 POP PUSH2 0xAA6 DUP4 PUSH2 0x7C8 JUMP JUMPDEST SWAP3 POP DUP3 DUP3 ADD SWAP1 POP DUP1 DUP3 GT ISZERO PUSH2 0xABE JUMPI PUSH2 0xABD PUSH2 0xA64 JUMP JUMPDEST JUMPDEST SWAP3 SWAP2 POP POP JUMP JUMPDEST PUSH32 0x4E487B7100000000000000000000000000000000000000000000000000000000 PUSH0 MSTORE PUSH1 0x22 PUSH1 0x4 MSTORE PUSH1 0x24 PUSH0 REVERT JUMPDEST PUSH0 PUSH1 0x2 DUP3 DIV SWAP1 POP PUSH1 0x1 DUP3 AND DUP1 PUSH2 0xB08 JUMPI PUSH1 0x7F DUP3 AND SWAP2 POP JUMPDEST PUSH1 0x20 DUP3 LT DUP2 SUB PUSH2 0xB1B JUMPI PUSH2 0xB1A PUSH2 0xAC4 JUMP JUMPDEST JUMPDEST POP SWAP2 SWAP1 POP JUMP INVALID LOG2 PUSH5 0x6970667358 0x22 SLT KECCAK256 0x2C 0xC4 0x23 PUSH4 0x2B6321C2 ADDRESS 0xB3 DUP9 0xA5 BASEFEE 0xB0 PUSH8 0xAB80CC64046B70E4 0xCC SWAP8 0x4F DUP2 0xB0 0x2C 0xEA 0xCB BYTE PUSH5 0x736F6C6343 STOP ADDMOD XOR STOP CALLER "},"gasEstimates":{"creation":{"codeDepositCost":"580600","executionCost":"infinite","totalCost":"infinite"},"external":{"candidates(uint256)":"infinite","getCandidateName(uint256)":"infinite","getCandidateParty(uint256)":"infinite","getVoteCount(uint256)":"infinite","manager()":"2575","vote(uint256)":"infinite","voters(address)":"2855","votingDistrict()":"infinite"}},"methodIdentifiers":{"candidates(uint256)":"3477ee2e","getCandidateName(uint256)":"e13804a7","getCandidateParty(uint256)":"456645a7","getVoteCount(uint256)":"b2c2f2e8","manager()":"481c6a75","vote(uint256)":"0121b93f","voters(address)":"a3ec138d","votingDistrict()":"716c424e"}},"storageLayout":{"storage":[{"astId":88,"contract":"evs.sol:Ballot","label":"candidates","offset":0,"slot":"0","type":"t_array(t_struct(candidate)84_storage)dyn_storage"},{"astId":90,"contract":"evs.sol:Ballot","label":"manager","offset":0,"slot":"1","type":"t_address"},{"astId":92,"contract":"evs.sol:Ballot","label":"votingDistrict","offset":0,"slot":"2","type":"t_string_storage"},{"astId":96,"contract":"evs.sol:Ballot","label":"voters","offset":0,"slot":"3","type":"t_mapping(t_address,t_bool)"}],"types":{"t_address":{"encoding":"inplace","label":"address","numberOfBytes":"20"},"t_array(t_struct(candidate)84_storage)dyn_storage":{"base":"t_struct(candidate)84_storage","encoding":"dynamic_array","label":"struct Ballot.candidate[]","numberOfBytes":"32"},"t_bool":{"encoding":"inplace","label":"bool","numberOfBytes":"1"},"t_mapping(t_address,t_bool)":{"encoding":"mapping","key":"t_address","label":"mapping(address => bool)","numberOfBytes":"32","value":"t_bool"},"t_string_storage":{"encoding":"bytes","label":"string","numberOfBytes":"32"},"t_struct(candidate)84_storage":{"encoding":"inplace","label":"struct Ballot.candidate","members":[{"astId":75,"contract":"evs.sol:Ballot","label":"name","offset":0,"slot":"0","type":"t_string_storage"},{"astId":77,"contract":"evs.sol:Ballot","label":"party","offset":0,"slot":"1","type":"t_string_storage"},{"astId":79,"contract":"evs.sol:Ballot","label":"voteCount","offset":0,"slot":"2","type":"t_uint256"},{"astId":81,"contract":"evs.sol:Ballot","label":"creationDate","offset":0,"slot":"3","type":"t_uint256"},{"astId":83,"contract":"evs.sol:Ballot","label":"expirationDate","offset":0,"slot":"4","type":"t_uint256"}],"numberOfBytes":"160"},"t_uint256":{"encoding":"inplace","label":"uint256","numberOfBytes":"32"}}},"userdoc":{"kind":"user","methods":{},"version":1}}